:1000000001308A00372900000A108A100A1182077D
:1000100028340C340134063420246536EC37A02B08
:100020006F396C32200020246536EC37A02B6F39F5
:100030006C322000263084008313000803192D2819
:100040000630F800F701F70B2328F80B22287B3045
:10005000F700F70B2928800B2028080029183228E0
:10006000861133288615831686118312A9183A281B
:1000700006113B28061583160611831229194228FA
:10008000861043288614831686108312A9194A28DD
:1000900006104B2806148316061000000612831261
:1000A00006160330F700F70B532883160612831247
:1000B0000612080083168612831286126330F70038
:1000C000F70B60286328A60803196B28831686128D
:1000D000831286166F2883168612831286120000FA
:1000E0008316061283120612270EA8000F30A805E9
:1000F0002808A9002E2027080F39A800A9002E20C3
:100100000800831686128312861283160612831243
:1001100006120F30A6001A20A2012208023C031C7E
:1001200099280330A9002E200530A6001A20A20A23
:100130008D280230A9002E20A2012208033C031CB6
:10014000AD2822080420A300A6012308A7005A20F6
:100150000530A6001A20A20A9D288A110A124629F3
:10016000230BB328B6284030A400B728A4010130DF
:100170002202A40724088038A500A6012508A700AC
:100180005A20080025080C3A0319CD28063A03190D
:10019000D528023A0319D628DB28A6010130A7008A
:1001A0005A200230A6001A20E028E028A6011030CC
:1001B000A7005A20E0280130A6002508A7005A20F1
:1001C00008000B08A2008B13831603178C170C145E
:1001D0000000000083120313A21B8B1703170C08E7
:1001E0007F39031935290313A20003170D080313E0
:1001F000A30003170F080313A4002208A500C220C0
:10020000230803178D000313240803178F0003131B
:100210000B08A5008B13831603178C170C14000012
:10022000000083120313A51B8B1703170C0D0E0D73
:100230007F39031935290313A20003170D0803138F
:10024000A30003170F080313A4002208A500C2206F
:10025000230803178D000313240803178F008D0A4A
:1002600003198F0A0313E128031703130800030877
:100270001F398300A101A00183161F149F141F15AD
:100280009F1107309C00831383128128003083164E
:10029000860001308312A200A300B0200C300317A7
:1002A0008D0000308F000313E1200130A2000230E6
:1002B000A300B020133003178D0000308F0003130C
:0602C000E1205529630056
:02400E003A3F37
:00000001FF
;PIC16F877A
;CRC=6012  CREATED="08-Apr-21 16:17"
