:1000000002308A009B2A00003100340037003200A1
:1000100035003800300033003600390034308400B9
:1000200083130008031921280630F800F701F70BA5
:100030001728F80B16287B30F700F70B1D28800BCC
:10004000142808000808F700080E0F39F800080007
:100050003B0EF039F7000F300805770488000000E8
:1000600008140330F700F70B332808100800831634
:10007000081088100811831288100F3083160805A5
:10008000F0388800831208150000081400002220B0
:100090007808BB000810000008144E284F28000004
:1000A00022207808BA0008100F308316080588004F
:1000B00083123B0EF700F030F70577083A04F8009A
:1000C0007808BA00BA1B3D28381C881038188814E4
:1000D0000000081100000810390EBA000F30BA05F0
:1000E0003A08BB00282039080F39BA00BB00282085
:1000F0000800350B7C287F284030B6008028B601E8
:1001000001303402B60736088038B700B801370826
:10011000B900372008003308073A031999280B3A29
:1001200003199E28063A0319A628023A0319AC2897
:10013000B1280130B400B5007920B628B8010130EB
:10014000B90037200230B4000E20B6280130B400C8
:100150000230B5007920B628B8011030B900372038
:10016000B6280130B8003308B900372008000B0862
:10017000B0008B13831603178C170C1400000000BB
:1001800083120313B01B8B1703170C087F39031955
:100190000B290313B00003170D080313B100031755
:1001A0000F080313B2003008B3008B203108031787
:1001B0008D000313320803178F0003130B08B300DD
:1001C0008B13831603178C170C1400000000831286
:1001D0000313B31B8B1703170C0D0E0D7F39031977
:1001E0000B290313B00003170D080313B100031705
:1001F0000F080313B2003008B3008B203108031737
:100200008D000313320803178F008D0A03198F0A1C
:100210000313B72803170313080083168601FD3064
:1002200083128600831606168312061A33290530B8
:10023000B4000E20831606168312061A3329AC0A60
:1002400020302C0784008313013080000430031712
:100250008D0000308F000313B7208316061683121B
:10026000061E2D291A29831686168312861A5429EA
:100270000530B4000E20831686168312861A542980
:10028000AC0A20302C078400831304308000053032
:1002900003178D0000308F000313B72083168616D6
:1002A0008312861E4E293B29831606178312061BCE
:1002B00074290530B4000E20831606178312061B1E
:1002C000742920302C078400831307308000063007
:1002D00003178D0000308F000313B7208316061715
:1002E0008312061F6E295C29831686178312861BCC
:1002F0008E290530B4000E20831686178312861BC4
:100300008E29AC0A20302C07840083132A30800009
:10031000831686178312861F88297C2983168601F7
:10032000FB3083128600831606168312061AB42940
:100330000530B4000E20831606168312061AB4295F
:10034000AC0A20302C078400831302308000073071
:1003500003178D0000308F000313B7208316061695
:100360008312061EAE299B29831686168312861ACF
:10037000D5290530B4000E20831686168312861AFE
:10038000D529AC0A20302C07840083130530800067
:10039000083003178D0000308F000313B720831639
:1003A00086168312861ECF29BC2983160617831250
:1003B000061BF6290530B4000E208316061783129B
:1003C000061BF629AC0A20302C0784008313083062
:1003D0008000093003178D0000308F000313B72011
:1003E000831606178312061FF029DD298316861748
:1003F0008312861B162A0530B4000E20831686173A
:100400008312861B162AAC0A20302C078400831323
:1004100080010A3003178D0000308F000313B720CE
:10042000831686178312861F102AFE2983168601DB
:10043000F73083128600831606168312061A3C2AAA
:100440000530B4000E20831606168312061A3C2AC5
:10045000AC0A20302C0784008313033080000B305B
:1004600003178D0000308F000313B7208316061684
:100470008312061E362A232A831686168312861AAC
:100480005D2A0530B4000E20831686168312861A64
:100490005D2AAC0A20302C078400831306308000CC
:1004A0000C3003178D0000308F000313B720831624
:1004B00086168312861E572A442A8316061783122D
:1004C000061B7E2A0530B4000E2083160617831201
:1004D000061B7E2AAC0A20302C07840083130930C7
:1004E00080000D3003178D0000308F000313B720FC
:1004F000831606178312061F782A652A8316861725
:100500008312861B982A0530B4000E2083168617A6
:100510008312861B982AAC0A20302C078400831390
:1005200023308000831686178312861F922A862A1C
:100530008A110A12AD2A03081F398300AC01AE01EB
:10054000AD01FF30AF0083161F149F141F159F11BC
:1005500007309C00831383120D2920302C07840060
:100560008313000BB92A2F122F08831687008312DA
:060570000712AC2A630033
:02400E00723FFF
:00000001FF
;PIC16F877A
;CRC=A242  CREATED="05-Apr-21 18:26"
