:1000000004308A00162C00003100340037002A002A
:10001000320035003800300033003600390023004C
:10002000D030F3393A100001D22447245400572924
:100030004F274700343084008313000803192D280C
:100040000630F800F701F70B2328F80B22287B3045
:10005000F700F70B2928800B202808003B183228CE
:10006000081233280816831608128312BB183A2880
:1000700088123B2888168316881283123B1942285F
:10008000081343280817831608138312BB194A283C
:1000900088134B28881783168813000083120814CE
:1000A000831608100330F700F70B5428831208104A
:1000B0008316081083120800BC018316081600304E
:1000C0008312081A0130BC0483168816003083128C
:1000D000881A0130F7000310F70D7708BC04831667
:1000E000081700308312081B0130F700F70DF70DD9
:1000F000FC30F7057708BC0483168817003083129C
:10010000881B0130F700F70DF70DF70DF830F705F4
:100110007708BC043C08F800080083160810881013
:10012000081183128810831688100816881608177D
:10013000881783120815831608110000831208140B
:1001400083160810000083125C207808BB0008109A
:100150008316081000008312081483160810B028B4
:10016000B128000083125C207808BA0008108316BA
:100170000810081288120813881383123B0EF70028
:10018000F030F70577083A04F8007808BA00BA1F8B
:10019000CB2883169528B808031DD0288810D128AD
:1001A0008814831688100000831208118316081122
:1001B000000083120810831608108312390EBA004B
:1001C0000F30BA053A08BB002E2039080F39BA00A3
:1001D000BB002E2008002830B0000C30B1000130E8
:1001E000B2000630B300081083160810831288107E
:1001F00083168810831208118316081108128812BA
:10020000081388130810881008110F308312B400E7
:100210001A200130AF002F08033C031C17290330BC
:10022000BB002E200530B4001A20AF0A0B29023083
:10023000BB002E200530B4001A20AF012F08033C6C
:10024000031C2E2930302F07840083130008B400CC
:10025000B8013408B9008D20AF0A1E298A110A128C
:10026000262C350B342937294030B6003829B60101
:1002700001303402B60736088038B700B8013708B5
:10028000B9008D2008003308073A031951290B3AA9
:1002900003195629063A03195E29023A03196429FB
:1002A00069290130B400B50031216E29B80101304F
:1002B000B9008D200230B4001A206E290130B4003C
:1002C0000230B50031216E29B8011030B9008D20FF
:1002D0006E290130B8003308B9008D2008000B08E2
:1002E000B0008B13831603178C170C14000000004A
:1002F00083120313B01B8B1703170C087F390319E4
:10030000C3290313B00003170D080313B10003172B
:100310000F080313B2003008B3004321310803175C
:100320008D000313320803178F0003130B08B3006B
:100330008B13831603178C170C1400000000831214
:100340000313B31B8B1703170C0D0E0D7F39031905
:10035000C3290313B00003170D080313B1000317DB
:100360000F080313B2003008B3004321310803170C
:100370008D000313320803178F008D0A03198F0AAB
:1003800003136F2903170313080083168601FD303A
:10039000831286003230B4001A20831606168312A8
:1003A000061AF129FA30B4001A20831606168312B1
:1003B000061ED52920082F07B000B4000130B50073
:1003C0003121043003178D0000308F0003136F219B
:1003D000213020078400831331308000A00AF80008
:1003E0008C2B831686168312861A152AFA30B400CF
:1003F0001A20831686168312861EF92920082F07D5
:10040000B000B4000130B5003121053003178D0074
:1004100000308F0003136F212130200784008313E5
:1004200034308000A00AF8008C2B83160617831244
:10043000061B392AFA30B4001A20831606178312D5
:10044000061F1D2A20082F07B000B4000130B50098
:100450003121063003178D0000308F0003136F2108
:10046000213020078400831337308000A00AF80071
:100470008C2B831686178312861B5D2AFA30B400F4
:100480001A20831686178312861F412A20082F07F9
:10049000B000B4000130B5003121073003178D00E2
:1004A00000308F0003136F21213020078400831355
:1004B0002A308000A00AF8008C2B83168601FB30BE
:1004C000831286003230B4001A2083160616831277
:1004D000061A892AFA30B4001A20831606168312E7
:1004E000061E6D2A20082F07B000B4000130B500A9
:1004F0003121083003178D0000308F0003136F2166
:10050000213020078400831332308000A00AF800D5
:100510008C2B831686168312861AAD2AFA30B40005
:100520001A20831686168312861E912A20082F070A
:10053000B000B4000130B5003121093003178D003F
:1005400000308F0003136F212130200784008313B4
:1005500035308000A00AF8008C2B83160617831212
:10056000061BD12AFA30B4001A208316061783120C
:10057000061FB52A20082F07B000B4000130B500CF
:1005800031210A3003178D0000308F0003136F21D3
:10059000213020078400831338308000A00AF8003F
:1005A0008C2B831686178312861BF52AFA30B4002B
:1005B0001A20831686178312861FD92A20082F0730
:1005C000B000B4000130B50031210B3003178D00AD
:1005D00000308F0003136F21213020078400831324
:1005E00030308000A00AF8008C2B83168601F7308B
:1005F000831286003230B4001A2083160616831246
:10060000061A212BFA30B4001A208316061683121C
:10061000061E052B20082F07B000B4000130B500DE
:1006200031210C3003178D0000308F0003136F2130
:10063000213020078400831333308000A00AF800A3
:100640008C2B831686168312861A452BFA30B4003B
:100650001A20831686168312861E292B20082F0740
:10066000B000B4000130B50031210D3003178D000A
:1006700000308F0003136F21213020078400831383
:1006800036308000A00AF8008C2B831606178312E0
:10069000061B692BFA30B4001A2083160617831242
:1006A000061F4D2B20082F07B000B4000130B50005
:1006B00031210E3003178D0000308F0003136F219E
:1006C000213020078400831339308000A00AF8000D
:1006D0008C2B831686178312861B8C2BFA30B40062
:1006E0001A20831686178312861F712B20082F0766
:1006F000B000B4000130B50031210F3003178D0078
:1007000000308F0003136F212130200784008313F2
:1007100023308000A00AF8008A110A12362CA008A3
:10072000031D9A2B2008053C031C9A2B0030F8006F
:10073000BC2BBC2B2108313C031DBA2B2208323CB8
:10074000031DBA2B2308333C031DBA2B2408343C69
:10075000031DBA2B2508353C031DBA2B2608363C51
:10076000031DBA2B27082A3C031DBA2B0130F800C1
:10077000BC2BBC2B0030F8008A110A123D2CB108AA
:10078000031DC42B0812C52B08168316081203106C
:100790008312310C003A031DCF2B8812D02B881600
:1007A000831688128312310CF700F70C3F30F705DF
:1007B0007708031DDD2B0813DE2B0817831608139B
:1007C0008312310CF700F70CF70C1F30F705770890
:1007D000031DEC2B8813ED2B8817831688138312C7
:1007E000080083160810831208140330B4001A207E
:1007F00083160810831208103230B4001A20080043
:100800000130AF0083168810831288102F0EB000BD
:100810000F30B0053008B100BF23F1232F08B1001D
:10082000BF23F1230A30B4001A20080003081F393F
:100830008300A001AC01AB0183161F149F141F1588
:100840009F1107309C0083138312EB28003083161E
:1008500088001030831203178D0000308F000313BF
:100860006F212030AD000630AF00C5297808AD00FB
:100870002D082A3C031D652C8F2B7808AE00AE088E
:100880000319542C0024143003178D0000308F00FE
:1008900003136F210430AF00FA30B4001A20AF0BFD
:1008A0004C2C8A010028652C0024173003178D007A
:1008B00000308F0003136F210430AF00FA30B40012
:0E08C0001A20AF0B5E2C8A010028332C630037
:02400E00723FFF
:00000001FF
;PIC16F877A
;CRC=5101  CREATED="27-Jun-22 10:52"
