:1000000008308A000028000031002A0034002A004D
:1000100037002A0032002A0035002A0038002A0062
:1000200030002A0033002A0036002A0039002A0056
:10003000D020D3293A00C3275229C5215410D020FB
:10004000D329000157294F274710D020D329000179
:1000500057294F274710D020D329000157294F2770
:100060004710D020D329000157294F274710D0200F
:10007000D329000157294F274710D020D329000149
:1000800057294F274710D020D3290001C3275229D1
:10009000C5215410D524440057294F274700D020AC
:1000A000D3293A00C3275229C5215410D020D3297F
:1000B000000157294F274710D020D3290001572985
:1000C0004F274710D020D329000157294F27471029
:1000D000D020D329000157294F274710D020D329FA
:1000E000000157294F274710D020D3290001572955
:1000F0004F274710D020D3290001C3275229C521FB
:100100005410D524440057294F2747004930840014
:1001100083130008031999280630F800F701F70B3C
:100120008F28F80B8E287B30F700F70B9528800B73
:100130008C2808004F0EF039F7000F3008057704BF
:100140008800000008140330F700F70BA5280810FA
:1001500008000808F700080E0F39F8000800831699
:10016000081088100811831288100F3083160805B4
:10017000F038880083120815000008140000A92038
:100180007808CF00081000000814C628C72800000F
:10019000A9207808CE0008100F30831608058800C3
:1001A00083124F0EF700F030F70577084E04F80081
:1001B0007808CE00CE1BB5284C1C88104C1888142B
:1001C00000000811000008104D0ECE000F30CE05C3
:1001D0004E08CF009A204D080F39CE00CF009A204C
:1001E00008002830C5000C30C6000130C7000630BA
:1001F000C8000810881008110F3083160805880001
:100200000810881008110F308312C90086200130B1
:10021000C4004408033C031C15290330CF009A2076
:100220000530C9008620C40A09290230CF009A206F
:100230000530C9008620C4014408033C031C2C2956
:1002400045304407840083130008C900CC014908E5
:10025000CD00AF20C40A1C298A150A1228280511CE
:1002600083160511831209118316091103108312D5
:100270005F0D7E39E2000830E100E10803195729DB
:1002800062088039803C0319472985104829851464
:10029000831685108312051583160511031083122A
:1002A000E20D0511831605118312E1033D29083083
:1002B000E100E1080319732960088039803C0319C3
:1002C000632985106429851483168510831205150A
:1002D0008316051103108312E00D05118316051115
:1002E0008312E10359290915831609118312051593
:1002F0008316051183120800E1010511831605110B
:100300008312091183160911031083125E0D7E39C1
:100310008038E0000830DF00DF080319A6296008F4
:100320008039803C031996298510972985148316F6
:100330008510831205158316051103108312E00D35
:100340000511831605118312DF038C290830DF00A5
:10035000DF080319BE290515831605110310831242
:10036000E10D831605140030831205180130E104F5
:100370000511831605118312DF03A82909158316B9
:100380000911831205158316051183126108F800FF
:100390000800DD015B08DE007C217808DD005C08D8
:1003A000FF3A5D05DE005B08DF005E08E0002F21FC
:1003B0000800DD015B08DE007C217808DD005D08B7
:1003C0005C04DE005B08DF005E08E0002F2108000F
:1003D0000915831609118312091483160910831253
:1003E000091483160910F429F52900008312091055
:1003F00083160910FB29FC290000831209148316B7
:100400000910022A032A000001308312DF000F3096
:10041000E0002F210B2A0C2A00002A30DF008D304B
:10042000E0002F212B30DF003E30E0002F212D3067
:10043000DF001E30E0002F212C30DF00E0012F21F3
:100440001530DF004030E0002F211130DF003D305B
:10045000E0002F211430DB000330DC00C921143010
:10046000DE007C217808C4001430DB000330DC009F
:10047000D9218A150A122B28490B3F2A422A4030DB
:10048000CA00432ACA0101304802CA074A08803814
:10049000CB00CC014B08CD00AF2008004708073A3D
:1004A00003195C2A0B3A0319612A063A0319692ACF
:1004B000023A03196F2A742A0130C800C9003C228D
:1004C000792ACC010130CD00AF200230C90086204E
:1004D000792A0130C8000230C9003C22792ACC01B7
:1004E0001030CD00AF20792A0130CC004708CD0074
:1004F000AF2008000B08C4008B13831603178C175A
:100500000C140000000083120313C41B8B17031785
:100510000C087F390319CE2A0313C40003170D08F2
:100520000313C50003170F080313C6004408C700D0
:100530004E22450803178D000313460803178F004A
:1005400003130B08C7008B13831603178C170C14A7
:100550000000000083120313C71B8B1703170C0D39
:100560000E0D7F390319CE2A0313C40003170D089B
:100570000313C50003170F080313C6004408C70080
:100580004E22450803178D000313460803178F00FA
:100590008D0A03198F0A03137A2A0317031308001D
:1005A00083168601FD308312860083160616831299
:1005B000061A0B2B0530C9008620831606168312F7
:1005C000061A0B2BAC0A20302C0784008313013051
:1005D0008000043003178D0000308F0003137A224F
:1005E0000230C4009630C9008620C40BF22A0630BF
:1005F0002C07C400C8000130C9003C220530031795
:100600008D0000308F0003137A22831606168312A2
:10061000061E052BDD2A831686168312861A412BA9
:100620000530C9008620831686168312861A412B50
:10063000AC0A20302C07840083130430800006307D
:1006400003178D0000308F0003137A220230C4009C
:100650009630C9008620C40B282B06302C07C40016
:10066000C8000130C9003C22073003178D0000305C
:100670008F0003137A22831686168312861E3B2B65
:10068000132B831606178312061B762B0530C90021
:100690008620831606178312061B762B20302C0724
:1006A0008400831307308000083003178D0000306A
:1006B0008F0003137A220230C4009630C9008620CE
:1006C000C40B5D2B06302C07C400C8000130C900E4
:1006D0003C22093003178D0000308F0003137A226B
:1006E000831606178312061F702B492B8316861755
:1006F0008312861B902B0530C9008620831686172F
:100700008312861B902BAC0A20302C0784008313A5
:100710002A308000831686178312861F8A2B7E2B31
:1007200083168601FB308312860083160616831219
:10073000061ACB2B0530C9008620831606168312B5
:10074000061ACB2BAC0A20302C078400831302300E
:1007500080000A3003178D0000308F0003137A22C7
:100760000230C4009630C9008620C40BB22B06307C
:100770002C07C400C8000130C9003C220B3003170D
:100780008D0000308F0003137A2283160616831221
:10079000061EC52B9D2B831686168312861A012CE6
:1007A0000530C9008620831686168312861A012C0E
:1007B000AC0A20302C0784008313053080000C30F5
:1007C00003178D0000308F0003137A220230C4001B
:1007D0009630C9008620C40BE82B06302C07C400D5
:1007E000C8000130C9003C220D3003178D000030D5
:1007F0008F0003137A22831686168312861EFB2B24
:10080000D32B831606178312061B372C0530C9001D
:100810008620831606178312061B372CAC0A20305D
:100820002C0784008313083080000E3003178D00DE
:1008300000308F0003137A220230C4009630C900C2
:100840008620C40B1E2C06302C07C400C8000130C3
:10085000C9003C220F3003178D0000308F000313B6
:100860007A22831606178312061F312C092C831651
:1008700086178312861B6C2C0530C90086208316D0
:1008800086178312861B6C2CAC0A20302C07840040
:1008900083138001103003178D0000308F00031385
:1008A0007A220230C4009630C9008620C40B532C33
:1008B00006302C07C400C8000130C9003C221130AA
:1008C00003178D0000308F0003137A2283168617DA
:1008D0008312861F662C3F2C83168601F730831205
:1008E0008600831606168312061AA72C0530C90047
:1008F0008620831606168312061AA72CAC0A20300F
:100900002C078400831303308000123003178D00FE
:1009100000308F0003137A220230C4009630C900E1
:100920008620C40B8E2C06302C07C400C800013072
:10093000C9003C22133003178D0000308F000313D1
:100940007A22831606168312061EA12C792C831692
:1009500086168312861ADD2C0530C9008620831680
:1009600086168312861ADD2CAC0A20302C078400F0
:10097000831306308000143003178D0000308F0081
:1009800003137A220230C4009630C9008620C40BBB
:10099000C42C06302C07C400C8000130C9003C221A
:1009A000153003178D0000308F0003137A22831651
:1009B00086168312861ED72CAF2C83160617831239
:1009C000061B132D0530C9008620831606178312D7
:1009D000061B132DAC0A20302C078400831309302A
:1009E0008000163003178D0000308F0003137A2229
:1009F0000230C4009630C9008620C40BFA2C0630A1
:100A00002C07C400C8000130C9003C22173003176E
:100A10008D0000308F0003137A228316061783128D
:100A2000061F0D2DE52C831686178312861B2D2D90
:100A30000530C9008620831686178312861B2D2D4C
:100A4000AC0A20302C0784008313233080008316E7
:100A500086178312861F272D1B2D08003C133C0888
:100A60008316870083120717BC123C088316870081
:100A70008312871283168811831288113C123C0856
:100A800083168700831207160C30C400FA30C900A1
:100A90008620C40B462D3C133C0883168700831226
:100AA0000713BC123C0883168700831287123C127E
:100AB0003C0883168700831207128316881183125D
:100AC00088110C30C400FA30C9008620C40B632D95
:100AD0003C133C088316870083120713BC123C08A2
:100AE0008316870083128716831688118312881550
:100AF0003C123C0883168700831207120C30C40096
:100B0000FA30C9008620C40B802D3C133C088316A4
:100B1000870083120713BC123C08831687008312D8
:100B200087123C123C088316870083120712831633
:100B30008811831288110130AC002C08073C031C7B
:100B4000A82D20302C07840083138001AC0A9D2D32
:100B500008000230D500D601D7014D080E3A03191E
:100B6000B52D023A0319BA2DBF2D1230D600103020
:100B7000D700BF2D7730D6003030D700BF2D5608B4
:100B80008038DB000230DF005B08E0002F210430FA
:100B9000DB008030DC00C9210A30DB008030DC0063
:100BA000D9210130DF00E0012F21DA0150085A027B
:100BB0000318E92D5A084E07840083134F18831732
:100BC0000008DB000930DF005B08E0002F21DA0AB3
:100BD000D62D0130DF004D08E0002F214D080C3CE0
:100BE000031DF72D0D30DB008030DC00D921FF30F4
:100BF000DA000430DE007C217808D900DA03DA0854
:100C00000319082E5918082E590857050319F92DEC
:100C10000D30DB008030DC00C921DA080319802E9A
:100C20000630DE007C2178081B39031D7E2ED5019D
:100C300059085605013903191F2E0130D5004D08FA
:100C40000C3C031D7D2E0A30DE007C217808D90083
:100C50000C30DE007C2178080739D800D808031949
:100C6000422E53088400831354188317013059020D
:100C7000F700F70DF70DF70DF830F705770858076F
:100C800080004F2E53088400831354188317590D86
:100C9000F700F70DF70DF830F70577088000D90851
:100CA000031D542E0130D9005908103C03185A2E48
:100CB0001030D900DA0159085A020318762E5A0862
:100CC0005107F8005208FA000318FA0A7808DB0006
:100CD0007A08DC000930DE007C215B088400831385
:100CE0005C18831778088000DA0A5B2E5A085107CF
:100CF00084008313521883178001802E0230D500A0
:100D00005508F80008002630C6004508C800440809
:100D1000C7000D30DF000730E0002F2147088400B6
:100D2000831348188317460880000C30CD0048080C
:100D3000CF004708CE000130D0004808D200470855
:100D4000D100D4014A30D300A9257808C900C908C8
:100D5000031DAE2E4A08103C0319B02E0230C90004
:100D60004908F800F808031DB92E0130F800BB2E21
:100D7000BB2E0030F80008004508C8004408C70032
:100D8000CB010D30DF00E0012F21470884008313E1
:100D9000481883179330800001304707840083137D
:100DA00048188317203080000830DB00DC00C921A0
:100DB0000C30CD004808CF004708CE000230D000EC
:100DC0004808D2004708D100D4014C30D300A925EF
:100DD0007808C900C908031D082FCA014A08033C46
:100DE000031CFC2E4A084707840083134818831706
:100DF0000008CB06CA0AEE2E04304707840083138E
:100E00004818831700084B020319082F0230C90045
:100E10004908F8007808C6000530440784008313A9
:100E2000451883178001C608031D1A2F0130F800EA
:100E30001C2F1C2F0030F8000800C8014808033C94
:100E4000031C3B2F48084607840083134718831769
:100E50000008C90048084407840083134518831715
:100E600000084902031D372F0130AD00392FAD01B5
:100E70003B2FC80A1E2F2D08F8000800C608031DC6
:100E8000432F0812442F08168316081203108312EA
:100E9000460C003A031D4E2F88124F2F88168316DA
:100EA00088128312460CF700F70C3F30F7057708DD
:100EB000031D5C2F08135D2F081783160813831278
:100EC000460CF700F70CF70C1F30F7057708031DE9
:100ED0006B2F88136C2F88178316881383120800D2
:100EE00083160810831208140430F700F70B762FCE
:100EF000792F83160810831208105330F700F70B70
:100F00007F2F08000130C4008316881083128810D8
:100F1000440EC5000F30C5054508C6003E277027A2
:100F20004408C6003E2770270A30C9008620080002
:1010000003081F398300AC01AD01BB01BA01FF30F9
:10101000BC0083161F149F141F159F1107309C00DE
:10102000831343308312AE00A830AF00F230B0001B
:101030000230B100B201B301AA30B4006130B50092
:10104000DF30B6008030B700B801B9018A11F1284D
:101050008A158A11E8298A150030831687008312C1
:10106000BC00831688001830831203178D000030EF
:101070008F008A1103137A228A150730C8000130C5
:10108000C9008A113C228A150030BC0083168701F2
:10109000831287018A11D0228A15210B7B2822080E
:1010A000023C031D7B282308033C031D7B282408E6
:1010B000043C031D7B282508053C031D7B282608CE
:1010C000063C031D7B2827082A3C031D7B28013092
:1010D000C8000230C9008A113C228A151B30031750
:1010E0008D0000308F008A1103137A228A158A112D
:1010F0002E258A15C129210B7E28A12820302C07F6
:101100008400831300082A3C031DA1280130C80075
:101110000230C9008A113C228A15223003178D0043
:1011200000308F008A1103137A228A150830C40018
:10113000FA30C9008A1186208A15C40B98288A01C2
:1011400000282208023C0319C82820302C078400FC
:10115000831300082A3C031DC8280130C800023050
:10116000C9008A113C228A15283003178D000030EF
:101170008F008A1103137A228A150830C400FA30CE
:10118000C9008A1186208A15C40BBF288A0100284D
:101190002308033C0319EF2820302C078400831315
:1011A00000082A3C031DEF280130C8000230C900A6
:1011B0008A113C228A152E3003178D0000308F00D3
:1011C0008A1103137A228A150830C400FA30C90044
:1011D0008A1186208A15C40BE6288A010028240873
:1011E000043C0319162920302C07840083130008BF
:1011F0002A3C031D16290130C8000230C9008A119B
:101200003C228A15343003178D0000308F008A117C
:1012100003137A228A150830C400FA30C9008A11F3
:1012200086208A15C40B0D298A0100282508053C53
:1012300003193D2920302C078400831300082A3C21
:10124000031D3D290130C8000230C9008A113C222B
:101250008A153A3003178D0000308F008A1103136E
:101260007A228A150830C400FA30C9008A11862013
:101270008A15C40B34298A0100282608063C031964
:10128000642920302C078400831300082A3C031DA6
:1012900064290130C8000230C9008A113C228A1535
:1012A000403003178D0000308F008A1103137A221B
:1012B0008A150830C400FA30C9008A1186208A15C0
:1012C000C40B5B298A01002820302C07840083137B
:1012D0000008233C031D6E298A010028C501433004
:1012E000C4008A1183268A15F8080319C029C5018C
:1012F0003D30C4008A11BC268A15F8080319C0299C
:10130000C5012E30C400C7013D30C6008A111D271B
:101310008A15F808031D9829C5013430C400C70197
:101320003D30C6008A111D278A15F8080319B02917
:101330008A1182278A150130C8000230C9008A113B
:101340003C228A15463003178D0000308F008A1129
:1013500003137A228A158A112E258A15C129C029DC
:101360000230C8000130C9008A113C228A154C3075
:1013700003178D0000308F008A1103137A228A151B
:101380004A288A118312031382278A154F300317C4
:101390008D0000308F008A1103137A228A15AC0168
:1013A0000730C8000130C9008A113C228A158A1111
:1013B000D0228A15210B0B2A2208023C031D0B2A7E
:1013C0002308033C031D0B2A2408043C031D0B2A9D
:1013D0002508053C031D0B2A2608063C031D0B2A85
:1013E00027082A3C031D0B2A8A1182278A150130FF
:1013F000C8000230C9008A113C228A1552300317F6
:101400008D0000308F008A1103137A228A158A1109
:101410002E258A15C129210B0E2A312A20302C07AE
:101420008400831300082A3C031D312A0130C800C0
:101430000230C9008A113C228A15593003178D00E9
:1014400000308F008A1103137A228A150830C400F5
:10145000FA30C9008A1186208A15C40B282A8A010D
:1014600000282208023C0319582A20302C07840047
:10147000831300082A3C031D582A0130C80002309B
:10148000C9008A113C228A155F3003178D00003095
:101490008F008A1103137A228A150830C400FA30AB
:1014A000C9008A1186208A15C40B4F2A8A01002898
:1014B0002308033C03197F2A20302C078400831360
:1014C00000082A3C031D7F2A0130C8000230C900F1
:1014D0008A113C228A15653003178D0000308F0079
:1014E0008A1103137A228A150830C400FA30C90021
:1014F0008A1186208A15C40B762A8A0100282408BE
:10150000043C0319A62A20302C078400831300080A
:101510002A3C031DA62A0130C8000230C9008A11E6
:101520003C228A156B3003178D0000308F008A1122
:1015300003137A228A150830C400FA30C9008A11D0
:1015400086208A15C40B9D2A8A0100282508053C9F
:101550000319CD2A20302C078400831300082A3C6D
:10156000031DCD2A0130C8000230C9008A113C2277
:101570008A15713003178D0000308F008A11031314
:101580007A228A150830C400FA30C9008A118620F0
:101590008A15C40BC42A8A0100282608063C0319B0
:1015A000F42A20302C078400831300082A3C031DF2
:1015B000F42A0130C8000230C9008A113C228A1581
:1015C000773003178D0000308F008A1103137A22C1
:1015D0008A150830C400FA30C9008A1186208A159D
:1015E000C40BEB2A8A01002820302C0784008313C7
:1015F0000008233C031DFE2A8A010028C501433050
:10160000C4008A1183268A15F80803194D2BC501D9
:101610003D30C4008A11BC268A15F80803194D2BE9
:10162000C5012E30C400C7013D30C6008A111D27F8
:101630008A15F808031D282BC5013430C400C701E2
:101640003D30C6008A111D278A15F80803193D2B65
:101650000130C8000230C9008A113C228A157D3051
:1016600003178D0000308F008A1103137A228A1528
:101670008A112E258A15C1294D2B0130C800023050
:10168000C9008A113C228A15833003178D0000306F
:0E1690008F008A1103137A228A15D72963006E
:02400E00723FFF
:00000001FF
;PIC16F877A
;CRC=E5F8  CREATED="21-Apr-21 18:05"
