:1000000008308A00002800000C10CD3A61266937BC
:10001000E825E9326E1756370A28C921A018B61705
:10002000311C2021E139E931A025693A00008C24F6
:10003000EE34F4346136693D693767000A226F3760
:10004000E51000010C2AC123202A5928451D000172
:100050008A2A49223A100001D716C1100001D7168A
:10006000C2100001D7164539F21000015730840044
:100070008313000803194A280330F800F701F70B2F
:100080003F28F80B3E28E330F700F70B4528000027
:10009000800B3C2808005D184F28081250280816CD
:1000A000831608128312DD185728881258288816DC
:1000B0008316881283125D195F28081360280817B9
:1000C000831608138312DD19672888136828881798
:1000D00083168813000083120815831608117028F0
:1000E00071287228831208118316081183120800E0
:1000F000DE018316081600308312081A0130DE0470
:100100008316881600308312881A0130F700031016
:10011000F70D7708DE048316081700308312081BDA
:100120000130F700F70DF70DFC30F7057708DE0416
:100130008316881700308312881B0130F700F70DF3
:10014000F70DF70DF830F7057708DE045E08F800C4
:1001500008008316081108108810831208108316EF
:100160000810081688160817881783128814831633
:1001700088100000831208158316081100008312EE
:1001800078207808DD00081183160811000083121A
:10019000081583160811CC280000831278207808EF
:1001A000DC0008118316081108128812081388133E
:1001B00083125D0EF700F030F70577085C04F80055
:1001C0007808DC00DC1FE6288316B128DA08031D56
:1001D000EB280810EC28081483160810000083127E
:1001E00088108316881000008312081183160811E6
:1001F00083125B0EDC000F30DC055C08DD004B2059
:100200005B080F39DC00DD004B2008002830D300EC
:100210000C30D4000130D5000630D600081183160A
:100220000811831208108316081083128810831691
:1002300088100812881208138813081108108810F3
:100240000F308312D70036200130D2005208033C11
:10025000031C32290330DD004B200530D700362047
:10026000D20A26290230DD004B200530D700362087
:10027000D2015208033C031C492953305207840021
:1002800083130008D700DA015708DB00A920D20A3F
:1002900039298A150A125828570B4F2952294030FC
:1002A000D8005329D80101305602D80758088038A1
:1002B000D900DA015908DB00A92008005508073ADF
:1002C00003196C290B3A03197129063A0319792984
:1002D000023A03197F2984290130D600D7004C2126
:1002E0008929DA010130DB00A9200230D70036204D
:1002F00089290130D6000230D7004C218929DA0142
:100300001030DB00A92089290130DA005508DB0014
:10031000A92008000B08D2008B13831603178C1733
:100320000C140000000083120313D21B8B17031759
:100330000C087F390319DE290313D20003170D08B7
:100340000313D30003170F080313D4005208D5007A
:100350005E21530803178D000313540803178F0001
:1003600003130B08D5008B13831603178C170C147B
:100370000000000083120313D51B8B1703170C0D0D
:100380000E0D7F390319DE290313D20003170D0860
:100390000313D30003170F080313D4005208D5002A
:1003A0005E21530803178D000313540803178F00B1
:1003B0008D0A03198F0A03138A29031703130800F0
:1003C0008711A01120088316870083120911831654
:1003D00009110310210D7E39A4000830A300A308E1
:1003E0000319112A24088039803C0319FB29831240
:1003F0000712FD2983168312071620122008831680
:10040000870083128715A011200883168700031028
:10041000A40D83128711A011200883168700A3035F
:10042000EF290830A300A3080319352A22088039D0
:10043000803C03191F2A83120712212A8316831274
:100440000716201220088316870083128715A01133
:100450002008831687000310A20D83128711A011B4
:10046000200883168700A303132A83120915831615
:10047000091183128715A0112008831687008312A3
:1004800008008316A30183128711A0112008831688
:10049000870083120911831609110310200D7E397C
:1004A0008038A2000830A100A1080319762A22088A
:1004B0008039803C0319602A83120712622A83164E
:1004C00083120716201220088316870083128715CF
:1004D000A0112008831687000310A20D8312871134
:1004E000A011200883168700A103542A0830A10018
:1004F000A1080319962A83128715A01120088316D4
:1005000087000310A30D8312A0162008831687000E
:1005100000308312871A01308316A30483128711D7
:10052000A011200883168700A103782A83120915D9
:100530008316091183128715A011200883168700DE
:100540002308F80083120800FE017C088316A0002F
:10055000831241227808FE007D08FF3A7E0583164B
:10056000A0007C08A1002008A2008312E02108005E
:10057000FE017C088316A000831241227808FE0049
:100580007E087D048316A0007C08A1002008A2003C
:100590008312E0210800091583160911831209143A
:1005A000831609108312091483160910D72A000034
:1005B0008312091083160910DD2A00008312091422
:1005C00083160910E32A00000130A1000F30A200B9
:1005D0008312E021EB2A00002A308316A1008D301F
:1005E000A2008312E0212B308316A1003E30A2002E
:1005F0008312E0212D308316A1001E30A200831249
:10060000E0212C308316A100A2018312E0211530D5
:100610008316A1004030A2008312E021113083161E
:10062000A1003D30A2008312E0211430FC00033011
:10063000FD00A42214308316A00083124122780802
:10064000D2001430FC000330FD00B8228A150A12D3
:1006500076280230F200F301F4016A080E3A031919
:10066000352B023A03193A2B3F2B1230F30010308E
:10067000F4003F2B7730F3003030F4003F2B730849
:100680008038FC0002308316A1007C08A20083128F
:10069000E0210430FC008030FD00A4220A30FC0080
:1006A0008030FD00B82201308316A100A201831220
:1006B000E021FB016D087B0203186F2B7B086B07A1
:1006C000840083136C1883170008FC00093083161C
:1006D000A1007C08A2008312E021FB0A5A2B013002
:1006E0008316A10083126A088316A2008312E021F8
:1006F0006A080C3C031D812B0D30FC008030FD008E
:10070000B822FF30FB0004308316A0008312412280
:100710007808F600FB03FB080319942B7618942B3A
:10072000760874050319832B0D30FC008030FD0022
:10073000A422FB080319142C06308316A000831290
:10074000412278081B39031D122CF201760873052B
:1007500001390319AD2B0130F2006A080C3C031D6E
:10076000112C0A308316A000831241227808F6006B
:100770000C308316A0008312412278080739F50057
:10078000F5080319D42B700884008313711883179C
:1007900001307602F700F70DF70DF70DF830F70589
:1007A000770875078000E12B7008840083137118A7
:1007B0008317760DF700F70DF70DF830F70577087A
:1007C0008000F608031DE62B0130F6007608103C89
:1007D0000318EC2B1030F600FB0176087B0203189F
:1007E0000A2C7B086E07F8006F08FA000318FA0A53
:1007F0007808FC007A08FD0009308316A0008312F7
:1008000041227C08840083137D18831778088000B8
:10081000FB0AED2B7B086E07840083136F18831788
:100820008001142C0230F2007208F8000800263013
:10083000D4005308D6005208D5000D308316A1000D
:100840000730A2008312E021550884008313561854
:100850008317540880000C30EA005608EC00550855
:10086000EB000130ED005608EF005508EE00F101F5
:100870005830F00029237808D700D708031D442CEE
:100880005808103C0319462C0230D7005708F800CE
:10089000F808031D4F2C0130F800512C512C00306A
:1008A000F8008A150A128528D41B662C0F30F70031
:1008B000530EF7050A3077020318612C3030F70722
:1008C000632C5408F7077708D5005E210F30D30555
:1008D0000A30530203186E2C3030702CD413540895
:1008E000D3075308D5005E2108005308D6005208EC
:1008F000D500D9010D308316A100A2018312E02199
:1009000055088400831356188317933080000130F4
:100910005507840083135618831720308000083051
:10092000FC00FD00A4220C30EA005608EC0055083B
:10093000EB000230ED005608EF005508EE00F10123
:100940005A30F00029237808D700D708031DC32C9C
:10095000D8015808033C031CB72C580855078400DD
:100960008313561883170008D906D80AA92C043017
:10097000550784008313561883170008590203197A
:10098000C32C0230D7005708F8007808D40005308F
:10099000520784008313531883178001D408031D62
:1009A000D52C0130F800D72CD72C0030F8008A1550
:1009B0000A129E280530FC000430FD00A4220A30F3
:1009C000FC008030FD00B822EF016C086F020318B4
:1009D000FE2C6B08FA006A08EA0A0319EB0A840085
:1009E00083137A1883170008F10009308316A100D9
:1009F0007108A2008312E021EF0AE52C0130831672
:100A0000A1000330A2008312E021FF30EF00053087
:100A10008316A000831241227808F000EF03EF084C
:100A20000319142D701D072D6D08F8006E08FA00CB
:100A30006D08F1006E08F20022308316A0008312C8
:100A4000412271088400831372188317780880008C
:100A500001306D07F8006E08FA000318FA0A7808EA
:100A6000F1007A08F20021308316A000831241229F
:100A700071088400831372188317780880000800B7
:100A80009330D8007030D9000230D4005408063CAE
:100A9000031C672D58305407F800FA010318FA0AAE
:100AA0007A08E2005308FA005208D20A0319D30A5E
:100AB000840083137A1883170008E3007808840001
:100AC00083136218831763088000D40A462DEB0154
:100AD0005830EA000730EC00EE015F30ED00DA2418
:100AE0000C30EA00EC015830EB000930ED00EF016A
:100AF0005830EE00F1015730F00029237808D50076
:100B0000D508031D8A2D5708183C031D8A2D580847
:100B1000D6008B2DD6015608F8008A150A12C32874
:100B2000D6015608043C031CAD2D5608540784001A
:100B30008313551883170008D700560852078400FE
:100B400083135318831700085702031DA92D481457
:100B5000AB2D4810AD2DD60A912D0030481801302C
:100B6000F8000800D6015608043C031CCF2D560897
:100B7000540784008313551883170008D7005608BC
:100B80005207840083135318831700085702031D6C
:100B9000CB2DC814CD2DC810CF2DD60AB32D0030C3
:100BA000C8180130F8008A150A12E3285208DB0041
:100BB0005308DC000230DA005A08073C031CF82D09
:100BC0005B305A07F800FA010318FA0A02305A0299
:100BD000540784008313551883170008E900780828
:100BE000840083137A18831769088000DA0ADC2DE1
:100BF0000830DA005A080B3C031C162E5B305A07EB
:100C0000F800FA010318FA0A08305A02560784005D
:100C10008313571883170008E900780884008313AA
:100C20007A18831769088000DA0AFA2D0E30EA0074
:100C3000EC015B30EB000C30ED00EF015B30EE00BF
:100C4000F1015930F00029237808D800D808031D95
:100C5000302E08308316A00083124122F819322E5C
:100C60000230D8005808F8000800A030D800520818
:100C7000D900EB015830EA000230EC00EE015A30A6
:100C8000ED00DA240C30EA00EC015830EB000430BF
:100C9000ED00EF015830EE00F1015630F00029234D
:100CA0007808D500D508031D5E2E5608043C031DA8
:100CB0005E2E58080F390A3C0319602E0230D50009
:100CC000D508031DA62ED70157080F3C031C7F2E05
:100CD00058305707F800FA010318FA0A5708530763
:100CE00084008313541883170008EC0078088400EC
:100CF00083137A1883176C088000D70A642EEB01DF
:100D00005830EA001030EC00EE016830ED00DA24D3
:100D10000C30EA00EC015830EB001230ED00EF012E
:100D20005830EE00F1015630F00029237808D50044
:100D3000D508031DA42E5608043C031DA42E5808F4
:100D40000F390A3C0319A62E0230D5005508F800C9
:100D50000800530884008313541883173030800030
:100D600001305307840083135418831752088000FE
:100D700002305307F8005408FA000318FA0A7808FA
:100D8000D7007A08D8005408EB005308EA00023074
:100D9000EC007A08EE007808ED00DA240C30EA0066
:100DA0005408EC005308EB000430ED005408EF0049
:100DB0005308EE00F1015630F00029237808D500E1
:100DC000D508031DE72E5608903C0319E92E023082
:100DD000D5005508F8008A150A126F295030D30043
:100DE000D401EB015330EA000230EC00EE01553043
:100DF000ED00DA240830FC008030FD00A4220C3025
:100E0000EA00EC015330EB000430ED00EF01533009
:100E1000EE00F1015230F00029230830FC00FD0003
:080E2000A4228A150A127F29A1
:1010000003081F398300FF30A0004810C8104811A2
:1010100083161F149F141F159F1107309C00831304
:10102000FF308312A100A200A300A400A500A60027
:101030004D30A7007530A8006130A9006C30AA00BF
:101040006930AB006E30AC006830AD006B30AE0084
:101050006930AF006530B0006E30B1002E30B200A4
:101060007630B3006E30B400B5018130B600EE309A
:10107000B7005B30B8007430B9004030BA00BB0133
:10108000DB30BC00AA30BD005C30BE007430BF0055
:101090005930C000C101AB30C200E530C3005B3045
:1010A000C4007430C5006130C600C7018A1106292A
:1010B0008A15043003178D0000308F008A11031346
:1010C0008A218A150430D200FA30D7008A113620DE
:1010D0008A15D20B6428173003178D0000308F005B
:1010E0008A1103138A218A158A11CB2A8A151E3088
:1010F00003178D0000308F008A1103138A218A158F
:10110000D3014F30D2008A11172C8A15F808031921
:101110008029223003178D0000308F008A110313BD
:101120008A218A154F08D3003730D4008A115424FD
:101130008A15D3014930D2008A11752C8A15F80816
:1011400003190529283003178D0000308F008A11FC
:1011500003138A218A15D1015108043C031CBE28BF
:1011600049305107840083130008D200D300373080
:10117000D4008A1154248A15D10AAC28D3014930ED
:10118000D2008A11402D8A157808D000D30136305C
:10119000D200D5014930D4008A1190258A15F8086B
:1011A0000319D7288316051083120510DB28831630
:1011B000051083120514D3013C30D200D50149300B
:1011C000D4008A11B22D8A15F8080319EC28831669
:1011D000851083128510F0288316851083128514DC
:1011E000D3014230D200D5014930D4008A11902574
:1011F0008A15F808031901298316051183120511B0
:10120000052983160511831205156030D2000730B9
:10121000D300D5012130D400D7014930D6008A113E
:10122000D6258A15F808031D2E290D30D600013069
:10123000D7008A114C218A150130D200D401273001
:10124000D3008A1135268A152C3003178D00003003
:101250008F008A1103138A218A1568296130D20010
:101260000730D300D5012130D400D7014930D60052
:101270008A11D6258A15F808031D57290D30D60086
:101280000130D7008A114C218A150130D200D401D7
:101290002730D3008A1135268A152F3003178D0089
:1012A00000308F008A1103138A218A1568290D30B6
:1012B000D6000130D7008A114C218A15323003172D
:1012C0008D0000308F008A1103138A218A1580282F
:1012D0000430D200D4012730D3008A11A92E8A15F8
:1012E000F808031D7D290A30D5008A115E218A1570
:1012F0002730D5008A115E218A158A11EE2E8A15B3
:0413000080286300DE
:02400E00323F3F
:00000001FF
;PIC16F877A
;CRC=DE3B  CREATED="05-Oct-14 11:55"
