:1000000009308A00BC2900000C10CD3A61266937FE
:10001000E825E9326E1756372005D0244310311BEE
:10002000A017A0183810C230F3346310CB3474001A
:100030008C24441D2519581D2519581D2519581D96
:1000400025195800C330840083130008031936288B
:100050000330F800F701F70B2B28F80B2A28E330C0
:10006000F700F70B31280000800B282808008316C2
:100070004A183E2883120812402883168312081655
:1000800083160812CA184828831288124A28831631
:1000900083128816831688124A195228831208136D
:1000A000542883168312081783160813CA195C286C
:1000B000831288135E288316831288178316881389
:1000C000000083120815831608116628672868281F
:1000D0008312081183160811831208008316CB01BE
:1000E000081600308312081A01308316CB048816D4
:1000F00000308312881A0130F7000310F70D7708DB
:100100008316CB04081700308312081B0130F70058
:10011000F70DF70DFC30F70577088316CB04881729
:1001200000308312881B0130F700F70DF70DF70D33
:10013000F830F70577088316CB044B08F8008312D4
:1001400008008316081108108810831208108316FF
:100150000810081688160817881783128814831643
:1001600088100000831208158316081100008312FE
:100170006E2078088316CA008312081183160811AE
:1001800000008312081583160811C6280000831288
:100190006E2078088316C90083120811831608118F
:1001A00008128812081388134A0EF700F030F7057A
:1001B00077084904F8007808C900C91BA928C708AE
:1001C000031DE62883120810E828831683120814FA
:1001D0008316081000008312881083168810000010
:1001E0008312081183160811480EC9000F30C90583
:1001F0004908CA0083123720831648080F39C900FE
:10020000CA0083123720080028308316BF000C3044
:10021000C0000130C1000630C200831208118316ED
:100220000811831208108316081083128810831691
:1002300088100812881208138813081108108810F3
:100240000F30C3008312222001308316BE003E0807
:10025000033C031C37290330CA00831237200530C2
:100260008316C300831222208316BE0A2729023078
:10027000CA008312372005308316C3008312222060
:100280008316BE013E08033C031C5429BF303E07C1
:10029000840083130008C300C7014308C800831209
:1002A000A1208316BE0A422983128A150A12D82970
:1002B0008316440B5C295F294030C5006029C501C5
:1002C00001304302C50745088038C600C70146080B
:1002D000C8008312A120080083164208073A83123F
:1002E00003197C290B3A03198329063A03198F292C
:1002F000023A031997299E2901308316C300C400CE
:1003000083125821A5298316C7010130C800831222
:10031000A12002308316C30083122220A5290130B8
:100320008316C3000230C40083125821A529831606
:10033000C7011030C8008312A120A52901308316FF
:10034000C7004208C8008312A12008000B088316CA
:10035000BE0083128B13831603178C170C14000036
:1003600000000313BE1FB72983128B178316831255
:1003700003170C087F390319182A83160313BE00CC
:10038000831203170D0883160313BF00831203178C
:100390000F0883160313C0003E08C20083126C21AD
:1003A00083163F08831203178D008316031340083A
:1003B000831203178F0003130B088316C1008312E7
:1003C0008B13831603178C170C1400000000031303
:1003D000C11FED2983128B178316831203170C0D8F
:1003E0000E0D7F390319182A83160313BE008312DA
:1003F00003170D0883160313BF00831203170F089A
:1004000083160313C0003E08C20083126C218316BA
:100410003F08831203178D008316031340088312CD
:1004200003178F008D0A03198F0A0313A6290317D8
:1004300003138A150A12E1298316ED01831287112D
:10044000A011200883168700831209118316091151
:1004500003106A0D7E398038EC000830EB00EB08A1
:100460000319512A6C088039803C03193B2A8312F6
:1004700007123D2A831683120716201220088316BE
:10048000870083128715A0112008831687000310A8
:10049000EC0D83128711A011200883168700EB034F
:1004A0002F2A0830EB00EB080319712A83128715F5
:1004B000A0112008831687000310ED0D8312A016EB
:1004C00020088316870000308312871A01308316B4
:1004D000ED0483128711A011200883168700EB0317
:1004E000532A831209158316091183128715A01147
:1004F0002008831687006D08F80083120800871112
:10050000A011200883168700831209118316091190
:1005100003106B0D7E39EE000830ED00ED08031975
:10052000B02A6E088039803C03199A2A8312071278
:100530009C2A831683120716201220088316870030
:1005400083128715A0112008831687000310EE0D73
:1005500083128711A011200883168700ED038E2ACD
:100560000830ED00ED080319D42A6C088039803C6E
:100570000319BE2A83120712C02A83168312071694
:10058000201220088316870083128715A0112008E7
:10059000831687000310EC0D83128711A011200829
:1005A00083168700ED03B22A8312091583160911F9
:1005B00083128715A0112008831687008312080074
:1005C0008316E9016708EA0083121C227808831663
:1005D000E9006808FF3A6905EA006708EB006A0865
:1005E000EC0083127F2208008316E9016708EA0005
:1005F00083121C2278088316E90069086804EA005F
:100600006708EB006A08EC0083127F2208000530BF
:100610008316E7000430E8008312E02201308316DD
:10062000EB00EC0183127F220A308316E700803052
:10063000E8008312F4228316DC0159085C020318D7
:10064000382B5C085707F8005808FA000318FA0A14
:100650007808840083137A1883170008DE000930B5
:10066000EB005E08EC0083127F228316DC0A1D2B50
:100670000130EB000330EC0083127F22FF30831641
:10068000DC000530EA0083121C2278088316DD00A6
:10069000DC03DC0803194E2B5D1D412B5A08F800C2
:1006A0005B08FA005A08DE005B08DF002230EA002F
:1006B00083121C2283165E08840083135F1883173D
:1006C0007808800001305A07F8005B08FA00031828
:1006D000FA0A7808DE007A08DF002130EA00831287
:1006E0001C2283165E08840083135F188317780822
:1006F00080008312080002308316E100E201E3016A
:1007000059080E3A83120319892B023A03198F2BC9
:10071000962B12308316E2001030E300972B7730CF
:100720008316E2003030E300972B831283166208B1
:100730008038E7000230EB006708EC0083127F226C
:1007400004308316E7008030E8008312E022013095
:100750008316EB00EC0183127F220A308316E70038
:100760008030E8008312F4228316E6015C086602FA
:100770000318CB2B66085A07840083135B18831772
:100780000008E7000930EB006708EC0083127F22C5
:100790008316E60AB62B0130EB005908EC008312F1
:1007A0007F22831659080C3C031DDD2B0D30E7001A
:1007B0008030E8008312F42283165830E6000430BB
:1007C000EA0083121C2278088316E500E603E60897
:1007D0000319F02B6518F02B650863050319DF2B4F
:1007E0000D30E7008030E8008312E0228316E6082F
:1007F00003196D2C0630EA0083121C2278081B397D
:10080000031D6A2C8316E10165086205013903198D
:100810000B2C0130E10059080C3C031D682C0A30F8
:10082000EA0083121C2278088316E5000C30EA00E7
:1008300083121C22780807398316E400E4080319A0
:10084000322C5F088400831360188317013065021F
:10085000F700F70DF70DF70DF830F7057708640787
:1008600080003F2C5F088400831360188317650D98
:10087000F700F70DF70DF830F70577088000E50869
:10088000031D442C0130E5006508123C03184A2C76
:100890001230E500E601650866020318682C660858
:1008A0005D07F8005E08FA000318FA0A7808E70006
:1008B0007A08E8000930EA0083121C2283166708D0
:1008C000840083136818831778088000E60A4B2C8D
:1008D0006D2C831202308316E1000C30E70080306B
:1008E000E8008312F42201308316EB00EC0183123E
:1008F0007F2283166108F80083120800A030831657
:10090000C4003E08C500D801C430D7000230D90069
:10091000DB01C630DA00831207230C308316D900BE
:10092000DB01C430DA000430DC00DE01C430DD005D
:10093000E001C230DF0083127B2378088316C100F8
:10094000C108031DAC2C4208043C031DAC2C440818
:100950000F390A3C0319AE2C0230C100C108031D37
:10096000022DC30143080F3C031CD72CC43043079E
:10097000F800FA010318FA0A7808D6007A08D700B6
:1009800043083F07F8004008FA000318FA0A7808FD
:10099000840083137A1883170008D800560884004F
:1009A00083135718831758088000C30AB22CD80144
:1009B000C430D7001030D900DB01D430DA00831204
:1009C00007230C308316D900DB01C430DA00123063
:1009D000DC00DE01C430DD00E001C230DF00831244
:1009E0007B2378088316C100C108031D002D42082F
:1009F000043C031D002D44080F390A3C0319022D45
:100A00000230C1004108F80083128A150A12EB294E
:100A1000C2308316C2003E08C300D801C230D700DE
:100A20000230D900DB01C430DA00831207230C3016
:100A30008316D900DB01C230DA000430DC00DE01AD
:100A4000C230DD00E001C130DF0083127B23780873
:100A50008316C000C008031D362D4108043C031D49
:100A6000362D42080F390A3C0319382D0230C000D8
:100A7000C008031D602DC201C301C401C501D80116
:100A8000C230D7000430D900DB01C630DA0083124F
:100A900007230C308316D900DB01C230DA000630A0
:100AA000DC00DE01C230DD00E001C130DF00831276
:100AB0007B2378088316C0004008023C031DC00158
:100AC000C0080319662D0230F800972DB030C2001F
:100AD0003F08C300D801C230D7000230D900DB0183
:100AE000C430DA00831207230C308316D900DB01EF
:100AF000C230DA000430DC00DE01C230DD00E0018B
:100B0000C130DF0083127B2378088316C000C00841
:100B1000031D932D4108043C031D932D42080F39FA
:100B20000A3C0319952D0230C0004008F8008312DA
:100B30008A150A12F62983163E08C5003F08C6002A
:100B4000D801C530D7000230D900DB01C730DA0048
:100B5000831207230C308316D900DB01C530DA007D
:100B60000430DC00DE01C530DD00E001C330DF0011
:100B700083127B2378088316C200C208031DC92D87
:100B80004308043C031DC92D45080F390A3C0319CD
:100B9000CB2D0230C200C208031D162EC40144082A
:100BA0000F3C031CF42DC5304407F800FA0103186C
:100BB000FA0A7808D7007A08D80044084007F800F5
:100BC0004108FA000318FA0A7808840083137A1897
:100BD00083170008D9005708840083135818831717
:100BE00059088000C40ACF2DD801C530D700043081
:100BF000D900DB01C930DA00831207238316C30151
:100C00000C30D900DB01C530DA000630DC00DE0133
:100C1000C530DD00E001C330DF0083127B2378089C
:100C20008316C2004208023C031DC201C208031D14
:100C3000482EB030C5003F08C600D801C530D700E7
:100C40000230D900DB01C730DA00831207230C30F1
:100C50008316D900DB01C530DA000430DC00DE0188
:100C6000C530DD00E001C330DF0083127B2378084C
:100C70008316C200C208031D462E4308043C031D10
:100C8000462E45080F390A3C0319482E0230C2008F
:100C90004208F80083128A150A12042A09148316DE
:100CA0000910522E00008312091083160910582EC5
:100CB000000083120914831609105E2E0000013013
:100CC000EB000F30EC0083127F22662E0000113003
:100CD0008316EB003D30EC0083127F222D3083160B
:100CE000EB001E30EC0083127F222C308316EB00C9
:100CF000EC0183127F222A308316EB008D30EC004A
:100D000083127F222B308316EB003E30EC008312DF
:100D10007F2215308316EB004030EC0083127F22D7
:100D20000030F8008A150A12092A14308316E700E9
:100D30000330E8008312E0228A150A120C2A1430CC
:100D40008316EA0083121C2278088316BE003E0830
:100D50000339031DB22E1430E7000330E80083127C
:100D6000F422831683128A150A120F2A0230831680
:100D7000C1000830E700E8008312E0220D3083163E
:100D8000EB000730EC0083127F2214308316E7005B
:100D90000330E8008312F42283163E08C3000C30AF
:100DA000D900DB01C330DA000130DC00DE01C330E2
:100DB000DD00E001C230DF0083127B237808831658
:100DC000C100C108031DFE2E4208103C031DFE2E6B
:100DD0003F088400831340188317430880000130C4
:100DE0003F07F8004008FA000318FA0A7808840060
:100DF00083137A18831744088000002F0230C10043
:100E00004108F80083128A150A12242A8316C201A7
:100E10000830E700E8008312E0220D308316EB0073
:100E2000EC0183127F220E308316E7008030E80049
:100E30008312E02293308316C4002030C5000C30AA
:100E4000D900DB01C430DA000230DC00DE01C4303E
:100E5000DD00E001C330DF0083127B2378088316B6
:100E6000C000C008031D632FC1014108033C031CDF
:100E7000592F41083E07F8003F08FA000318FA0A04
:100E80007808D6007A08D700C4304107840083135D
:100E90000008D80056088400831357188317580891
:100EA0008000C4304107840083130008C206C10AD1
:100EB000352FC43041078400831300084202031910
:100EC000632F0230C0000E30E7008030E80083124C
:100ED000F42283164008F80083128A150A12312A78
:100EE0000B088316BF0083128B13831603178C170E
:100EF0000C14000000000313BF1F812F83128B17F7
:100F000083160318BA2F831203170C087F39831630
:100F10000313BF00831203170D0883160313C000C9
:100F2000831203170F0883160313C1003F08C20082
:100F300083126C2183164008831203178D008316D9
:100F400003134108831203178F0003130B08831642
:100F5000C20083128B13831603178C170C14000026
:100F600000000313C21FB72F83128B178316BE0B0B
:100F7000BA2FE82F831203170C0D0E0D7F3983163D
:100F80000313BF00831203170D0883160313C00059
:100F9000831203170F0883160313C1003F08C20012
:100FA00083126C2183164008831203178D00831669
:100FB00003134108831203178F008D0A03198F0A48
:100FC000031083160313BE0BE62FE82F8312702F36
:080FD00083128A150A12442A5B
:101000008316BF1B17280F30F7003E0EF7050A3076
:10101000770203180E283030F70710283F08F7072B
:101020007708C2008A1183126C218A1583160F304B
:10103000BE050A303E0203181F2830302128BF1396
:101040003F08BE073E08C2008A1183126C218A1530
:10105000080093308316C3007030C400C901C10179
:101060004108033C031C642802304107C33EF800DA
:10107000FA010318FA0A7808D5007A08D600410860
:101080003E07F8003F08FA000318FA0A78088400BF
:1010900083137A1883170008D70055088400831338
:1010A000561883175708800041083E07F8003F088C
:1010B000FA000318FA0A7808840083137A18831751
:1010C0000008C906C10A3028D801C330D70007304C
:1010D000D900DB01CA30DA008A11831207238A158E
:1010E00008308316E700E8008A118312E0228A158F
:1010F0000C308316D900DB01C330DA000930DC0084
:10110000DE01C330DD00E001C230DF008A1183124E
:101110007B238A1578088316C000C008031D962813
:101120004208183C031D9628C00198280230C000D0
:101130004008F80083128A150A127C2A83163E089A
:10114000C7003F08C800C6014608053C031CCA2862
:1011500002304607C73EF800FA010318FA0A780879
:10116000D9007A08DA0046084007F8004108FA007A
:101170000318FA0A7808840083137A188317000882
:10118000DB005908840083135A1883175B0880001A
:10119000C60AA428C6014608033C031CF1280830EF
:1011A0004607C73EF800FA010318FA0A7808D90082
:1011B0007A08DA0046084207F8004308FA000318E4
:1011C000FA0A7808840083137A1883170008DB0072
:1011D0005908840083135A1883175B088000C60AD5
:1011E000CB280E30D900DB01C730DA000C30DC0030
:1011F000DE01C730DD00E001C530DF008A11831257
:101200007B238A1578088316C400C408031D11299E
:101210000830EA008A1183121C228A15F819142951
:1012200083160230C400831283164408F800831228
:101230008A150A128E2A30308316C4003E08C50073
:10124000D801C430D7000230D900DB01C630DA0043
:101250008A11831207238A150C308316D900DB010B
:10126000C430DA000430DC00DE01C430DD00E0010F
:10127000C230DF008A1183127B238A157808831617
:10128000C100C108031D68294208903C031D68295C
:10129000C30143080F3C031C672943083F07F800BC
:1012A0004008FA000318FA0A7808D6007A08D7002E
:1012B000C4304307840083130008D8005608840014
:1012C00083135718831758088000C30A49296A29CD
:1012D0000230C1004108F80083128A150A129B2AC5
:1012E000800803198E298316BF010408BE003F1031
:1012F000831B3F140008C2008A1183126C218A15D7
:1013000083163E08840083133F188317840A031D45
:101310008C298312850A8316831270298A150A1272
:10132000B32A50308316C000C101D801C030D700A5
:101330000230D900DB01C230DA008A1183120723A0
:101340008A150C308316D900DB01C030DA00043076
:10135000DC00DE01C030DD00E001BF30DF008A11BB
:1013600083127B238A1578088316BE000030F800AC
:1013700083128A150A12B42A03081F398300FF302A
:10138000A00083161F149F141F159F1107309C0087
:10139000831312308312A100A201A301A401FF3024
:1013A000A500A600A700A800A900AA008A11042988
:1013B0008A15043003178D0000308F008A11031343
:1013C000A6298A1501308316BE00C001A030BF00D7
:1013D0008A1183127E2C8A157808BF00013083168B
:1013E000BE000230BF008A118312082D8A157808CA
:1013F000BF00C0308316BE000130BF00C1012130E4
:10140000C0008A1183129B2D8A157808BF008A11AB
:101410004E2E8A158A11952E8A158A119F2E8A15AD
:101420000830DE00FA308316C3008A1183122220AE
:101430008A15DE0B122A52308316BE00C0012B30F3
:10144000BF008A118312B62E8A157808BF00BF0824
:10145000031D1B2A8316BF012B30BE008A11831285
:10146000062F8A157808BF00BF08031D1B2A1830F5
:1014700003178D0000308F00031004308316031310
:10148000BE008A118312702F8A152B088316BE00A6
:101490003730BF00831200203A308316C2008A1111
:1014A00083126C218A152C088316BE003730BF00CA
:1014B000831200203A308316C2008A1183126C21F5
:1014C0008A152D088316BE003730BF008312002016
:1014D0003A308316C2008A1183126C218A152E08B5
:1014E0008316BE003730BF00831200208316BF0171
:1014F0002B30BE00831229287808BF00BF08031DC7
:101500001B2A60308316BE000130BF00C1012530A8
:10151000C000C3012B30C20083129E287808BF0090
:10152000BF08031D1B2A01308316BE00C0012B30EB
:10153000BF0083121B297808BF00BF08031D1B2AA8
:10154000BA010A308316C2008A1183126C218A15EF
:1015500020308316C2008A1183126C218A152B3029
:0C15600084008313702991291B2A63006A
:02400E00323F3F
:00000001FF
;PIC16F877A
;CRC=8F0C  CREATED="04-Oct-14 14:01"
