:1000000002308A00D12A00000511831605118312DF
:10001000091183160911031083124F0D7E39D20086
:100020000830D100D10803192C2852088039803CAF
:1000300003191C2885101D2885148316851083122A
:1000400005158316051103108312D20D05118316B1
:1000500005118312D10312280830D100D1080319E9
:10006000482850088039803C0319382885103928E1
:100070008514831685108312051583160511031048
:100080008312D00D0511831605118312D1032E287A
:10009000091583160911831205158316051183129C
:1000A0000800D10105118316051183120911831669
:1000B0000911031083124E0D7E398038D0000830AC
:1000C000CF00CF0803197B2850088039803C0319E2
:1000D0006B2885106C2885148316851083120515EE
:1000E0008316051103108312D00D05118316051117
:1000F0008312CF0361280830CF00CF08031993285B
:1001000005158316051103108312D10D83160514EE
:100110000030831205180130D10405118316051132
:100120008312CF037D280915831609118312051543
:100130008316051183125108F8000800CD014B0801
:10014000CE0051207808CD004C08FF3A4D05CE0076
:100150004B08CF004E08D00004200800CD014B080A
:10016000CE0051207808CD004D084C04CE004B083D
:10017000CF004E08D000042008000915831609118D
:1001800083120914831609108312091483160910A7
:10019000C928CA2800008312091083160910D02824
:1001A000D12800008312091483160910D728D828F3
:1001B000000001308312CF000F30D0000420E0286F
:1001C000E12800002A30CF008D30D00004202B30F1
:1001D000CF003E30D00004202D30CF001E30D000A4
:1001E00004202C30CF00D00104201530CF00403047
:1001F000D00004201130CF003D30D0000420143056
:10020000CB000330CC009E201430CE005120780863
:10021000B4001430CB000330CC00AE208A110A1297
:10022000F42A0230C500C601C7013D080E3A031981
:100230001D29023A0319222927291230C60010303D
:10024000C70027297730C6003030C7002729460865
:100250008038CB000230CF004B08D000042004309F
:10026000CB008030CC009E200A30CB008030CC0008
:10027000AE200130CF00D0010420CA0140084A025C
:10028000031851294A083E07840083133F18831737
:100290000008CB000930CF004B08D0000420CA0A68
:1002A0003E290130CF003D08D00004203D080C3C21
:1002B000031D5F290D30CB008030CC00AE20FF3015
:1002C000CA000430CE0051207808C900CA03CA0809
:1002D000031970294918702949084705031961292C
:1002E0000D30CB008030CC009E20CA080319E829CD
:1002F0000630CE00512078081B39031DE629C501C0
:10030000490846050139031987290130C5003D0810
:100310000C3C031DE5290A30CE0051207808C900A5
:100320000C30CE00512078080739C800C8080319DE
:10033000AA29430884008313441883170130490213
:10034000F700F70DF70DF70DF830F70577084807B8
:100350008000B72943088400831344188317490D8C
:10036000F700F70DF70DF830F70577088000C9089A
:10037000031DBC290130C9004908103C0318C229DB
:100380001030C900CA0149084A020318DE294A0888
:100390004107F8004208FA000318FA0A7808CB006F
:1003A0007A08CC000930CE0051204B08840083131A
:1003B0004C18831778088000CA0AC3294A084107E5
:1003C00084008313421883178001E8290230C50096
:1003D0004508F80008002630B6003508B800340893
:1003E000B7000D30CF000730D0000420370884005C
:1003F000831338188317360880000C30BD00380886
:10040000BF003708BE000130C0003808C2003708FE
:10041000C100C4013A30C30011217808B900B908FD
:10042000031D162A3A08103C0319182A0230B90095
:100430003908F800F808031D212A0130F800232AA2
:10044000232A0030F8008A110A12F82A3508B80069
:100450003408B700BB010D30CF00D00104203708AD
:1004600084008313381883179330800001303707D6
:100470008400831338188317203080000830CB00A5
:10048000CC009E200C30BD003808BF003708BE00ED
:100490000230C0003808C2003708C100C4013C3037
:1004A000C30011217808B900B908031D722ABA01E6
:1004B0003A08033C031C662A3A0837078400831372
:1004C000381883170008BB06BA0A582A04303707C1
:1004D000840083133818831700083B020319722A1B
:1004E0000230B9003908F8007808B6000530340742
:1004F00084008313351883178001B608031D842AEE
:100500000130F800862A862A0030F8008A110A1283
:10051000FF2AB8013808033C031CA62A380836070E
:1005200084008313371883170008B900380834078C
:10053000840083133518831700083902031DA22A8B
:100540002C14A42A2C10A62AB80A8A2A00302C18A7
:100550000130F8008A110A12092BB8013808033C4F
:10056000031CCA2A380836078400831337188317F8
:100570000008B9003808340784008313351883173E
:1005800000083902031DC62AAC14C82AAC10CA2AB6
:10059000B80AAE2A0030AC180130F8008A110A12ED
:1005A0001C2B03081F3983002C10AC1083161F145A
:1005B0009F141F159F1107309C0083134330831233
:1005C000A000A830A100F230A2000230A300A401D4
:1005D000A501AA30A6006130A700DF30A800803056
:1005E000A900AA01AB01BD28B5013330B400EB2945
:1005F000F8080319282BB5012D30B400262AF80875
:100600000319282BB5012030B400B7012D30B600F6
:10061000892AF8080319112B831608108312081071
:10062000152B8316081083120814B5012630B40068
:10063000B7012D30B600AD2AF8080319242B831614
:10064000881083128810282B831688108312881430
:04065000F42A630025
:02400E00723FFF
:00000001FF
;PIC16F877A
;CRC=A2F4  CREATED="10-Apr-21 13:38"
