:1000000010308A00002800000A108A100A118207A6
:1000100028340C3401340634A0224E2A45292027E6
:10002000C52B2028C1295310000020102010D722F2
:10003000CC21CF26C51000012010C4274F29201045
:100040002026CF214B10201000015029C529531024
:100050002310D42720244526D0100001A0224E2AA8
:100060004529A0274C222028C12953100001201027
:1000700020102010201020100001A0224E2A452917
:100080002027C52B2028C129531000012010201043
:1000900020102010201000012010201020224F27B7
:1000A000C51020102010201000012010C4274F2957
:1000B00020102026CF214B10201000015029C529E7
:1000C00053102310D42720244526D01000012010DF
:1000D000A024EE316F39F232633A21102010000172
:1000E0002010202AF23CA030E73069372110201080
:1000F00000012010201020102010201020102010AF
:1001000020100001201041224410CE225710C3209D
:1001100052222010000120104927D322522AA02168
:100120004129C41020100001A024441D2000A0215A
:10013000C827CF294510D027D324D4274E1020001C
:10014000D427A029412B4510C3205222BA18AD1A3A
:100150000001201041224410CE225710C320522209
:10016000201000012010201020224F27C510201041
:100170002010201000012010C4274F292010202615
:10018000CF214B10201000015029C52953102310F6
:10019000D42720244526D01000012010D222CD27BC
:1001A000D622A0214129C410201000014324CF27CA
:1001B000D322A0214129441DA018AD1A000120100E
:1001C0002010A021412944102532201020102000A9
:1001D000A024441D200020102010C422CC22D422B0
:1001E000C4102010201000002010C4274F29201018
:1001F0002026CF214B10201000015029C529531073
:100200002310D42720244526D01000002010C42716
:100210004F2920105527CC27C32520100001502935
:10022000C52953102310D42720244526D0100000C0
:10023000A0224E2A45292028C129D32B4F2944002A
:100240002010201020102010201000012010A024C9
:10025000EE316F39F232633A211020100001201084
:10026000202AF23CA030E73069372110201000012D
:1002700020102010201020102010201020102010FE
:1002800000002010C8275710D427A02AD3223F10DF
:10029000201000014110F437A02A4E26CF214B1028
:1002A000C4274F2900014210F437A021C820CE23D3
:1002B0004510D020D32900014310F437A020442258
:1002C0002027C52BC320522200014410F4372029D7
:1002D000C5264F2B4510C320522200012A10F437A7
:1002E000A021CC2241292028C1295310000123102C
:1002F000F437A022D82454102F10C220C3250000A8
:100300006F30840083130008031993290630F80026
:10031000F701F70B8929F80B88297B30F700F70BD9
:100320008F29800B862908007618982906129929AA
:10033000061683160612F618A12983128611A32920
:10034000831683128615831686117619AB298312BC
:100350000611AD2983168312061583160611F619A8
:10036000B52983128610B729831683128614831643
:100370008610000083128616831686120330F7005B
:10038000F70BC02983128612831686128312080087
:10039000FB018316061600308312061A0130FB0497
:1003A000831686150030831286190130F70003107A
:1003B000F70D7708FB048316061500308312061923
:1003C0000130F700F70DF70DFC30F7057708FB0457
:1003D000831686140030831286180130F700F70D5B
:1003E000F70DF70DF830F7057708FB047B08F800E8
:1003F00008008613831686130616861506158614BE
:1004000083120617831606130000831286168316BE
:10041000861200008312C8217808F600861283161F
:10042000861200008312861683168612000083123D
:10043000C8217808F50086128316861206128611E6
:1004400006118610760EF700F030F7057708750470
:10045000F8007808F500F51BFC29F308031D342A81
:1004600083128613362A8316831286178316861301
:1004700000008312061383160613000083128612EF
:1004800083168612740EF5000F30F5057508F60018
:100490008312942174080F39F500F60094210800A6
:1004A000700B542AF101682A7008023C031D5B2A74
:1004B0004030F100682A7008033C031D622A1430A2
:1004C000F100682A7008043C031D682A5430F100CA
:1004D00001306F02F10771088038F200F3017208F1
:1004E000F400F92108006E080C3A03197E2A063A36
:1004F0000319862A023A03198C2A912AF301013042
:10050000F400F9210230EF008021962A0130EF003B
:100510000230F0005022962AF3011030F400F92145
:10052000962A0130F3006E08F400F92108008316C2
:100530000612861106118610861286130613831280
:1005400086138316861383120613831606138312EB
:100550008612831686120F308312EF00802101303D
:10056000E7006708033C031CBD2A0330F600942112
:100570000530EF008021E70AB12A0230F60094210D
:10058000E7016708033C031CCE2A67080420E80043
:10059000F3016808F400F921E70AC12A0C30EE00E3
:1005A00073228A110A163C288711B011300883166D
:1005B000870083120910831609100310320D7E394B
:1005C000B5000830B400B4080319052B350880398C
:1005D000803C0319EF2A83120712F12A8316831233
:1005E0000716301230088316870083128715B01162
:1005F0003008831687000310B50D83128711B011E0
:10060000300883168700B403E32A0830B400B40826
:100610000319292B33088039803C0319132B8312CB
:100620000712152B83168312071630123008831613
:10063000870083128715B0113008831687000310D6
:10064000B30D83128711B011300883168700B403ED
:10065000072B831209148316091083128715B01112
:10066000300883168700831208008316B4018312B2
:100670008711B01130088316870083120910831682
:1006800009100310310D7E398038B3000830B200F4
:10069000B20803196A2B33088039803C0319542BA4
:1006A00083120712562B8316831207163012300856
:1006B0008316870083128715B011300883168700D0
:1006C0000310B30D83128711B01130088316870011
:1006D000B203482B0830B200B20803198A2B8312E8
:1006E0008715B0113008831687000310B40D8312EC
:1006F000B01630088316870000308312871A013045
:100700008316B40483128711B01130088316870052
:10071000B2036C2B831209148316091083128715F8
:10072000B0113008831687003408F80083120800DF
:100730008316B0012E08B100831235237808831682
:10074000B0002F08FF3A3005B1002E08B200310882
:10075000B3008312D42208008316B0012E08B10022
:100760008312352378088316B00030082F04B100B7
:100770002E08B2003108B3008312D42208000914F5
:10078000831609108312091583160911831209159E
:1007900083160911CB2BCC2B000083120911831671
:1007A0000911D22BD32B00008312091583160911CE
:1007B000D92BDA2B00000130B2000F30B3008312C6
:1007C000D422E22BE32B00002A308316B2008D30B6
:1007D000B3008312D4222B308316B2003E30B30014
:1007E0008312D4222D308316B2001E30B300831240
:1007F000D4222C308316B200B3018312D4221530D8
:100800008316B2004030B3008312D4221130831615
:10081000B2003D30B3008312D42214308316AE00F0
:100820000330AF008312982314308316B100831273
:1008300035237808E70014308316AE000330AF008C
:100840008312AC238A110A163F2801306902FC3E4C
:100850000318532C043E542CEA08031D312C0810B5
:10086000322C0814831608108312532CEA08031D37
:100870003B2C88103C2C8814831688108312532C30
:10088000EA08031D452C0811462C0815831608118B
:100890008312532CEA08031D4F2C8811502C881505
:1008A00083168811831208000A108A100A1582071D
:1008B0002C2C362C402C4A2C0130E7006708043CD5
:1008C000031C682C6708E900EA012524E70A5E2C6E
:1008D0008A110A164228F5017508043C031C852C70
:1008E00075087307840083137418831775087207DB
:1008F000FD007D0803178D0083168C130C148312E2
:100900000C088000F50A03136C2C08000B08E900A2
:100910008B13831603178C170C140000000083122E
:100920000313E91B8B1703170C087F390319DA2C03
:100930000313E90003170D080313EA0003170F0858
:100940000313EB006908EE0073226A0803178D0099
:1009500003136B0803178F0003130B08EC008B13B2
:10096000831603178C170C14000000008312031366
:10097000EC1B8B1703170C0D0E0D7F390319DA2CA6
:100980000313E90003170D080313EA0003170F0808
:100990000313EB006908EE0073226A0803178D0049
:1009A00003136B0803178F008D0A03198F0A0313B3
:1009B000862C031703130800E8010130E900EA0060
:1009C0002524831608168312081EE82C0130E8003F
:1009D000831688168312881EEF2C0230E8008316D7
:1009E00008178312081FF62C0330E80083168817B7
:1009F0008312881FFD2C0430E8000130E900EA0171
:100A000025240230E9000130EA0025248316081667
:100A10008312081E0D2D0530E800831688168312F8
:100A2000881E142D0630E800831608178312081F4D
:100A30001B2D0730E800831688178312881F222D8C
:100A40000830E8000230E900EA0125240330E9001B
:100A50000130EA002524831608168312081E322D61
:100A60000930E800831688168312881E392D0A3053
:100A7000E800831608178312081F402D0B30E8008A
:100A8000831688178312881F472D0C30E800033027
:100A9000E900EA0125240430E9000130EA002524B8
:100AA000831608168312081E572D0D30E800831692
:100AB00088168312881E5E2D0E30E80083160817F4
:100AC0008312081F652D0F30E800831688178312E4
:100AD000881F6C2D1030E8000430E900EA0125245D
:100AE0006808F80008006A308400831300080319BE
:100AF000862D0630F800F701F70B7C2DF80B7B2DC7
:100B00007B30F700F70B822D800B792D08008316C0
:100B10008510831285148316051083120510013089
:100B2000EF00F0005022F43003178D0000308F00EA
:100B3000031386240130EF000230F0005022FD3014
:100B400003178D0000308F00031386240800023045
:100B50008316A800A901AA0120080E3A83120319DE
:100B6000B52D023A0319BC2DC32D12308316A900EE
:100B70001030AA00C42D831277308316A9003030BC
:100B8000AA00C42D8312831629088038AE000230D3
:100B9000B2002E08B3008312D42204308316AE00B4
:100BA0008030AF00831298230A308316AE00803065
:100BB000AF008312AC2301308316B200B30183125D
:100BC000D4228316AD0123082D020318F82D2D0819
:100BD000210784008313221883170008AE00093010
:100BE000B2002E08B3008312D4228316AD0AE32D7F
:100BF0000130B2002008B3008312D42283162008EB
:100C00000C3C031D0A2E0D30AE008030AF00831265
:100C1000AC238316FF30AD000430B10083123523BE
:100C200078088316AC00AD03AD0803191D2E2C18EF
:100C30001D2E2C082A0503190C2E0D30AE00803015
:100C4000AF00831298238316AD080319A12E063036
:100C5000B1008312352378081B39031D9E2E83169D
:100C6000A8012C08290501390319382E0130A800E4
:100C700020080C3C031D9C2E0A30B1008312352342
:100C800078088316AC000C30B10083123523780845
:100C900007398316AB00AB0803195F2E26088400C2
:100CA00083132718831701302C02F700F70DF70D77
:100CB000F70DF830F70577082B0780006C2E260813
:100CC00084008313271883172C0DF700F70DF70DF9
:100CD000F830F70577088000AC08031D712E01304D
:100CE000AC002C08103C0318772E1030AC00AD017E
:100CF0002C082D020318952E2D082407F80025082E
:100D0000FA000318FA0A7808AE007A08AF00093032
:100D1000B1008312352383162E08840083132F1805
:100D2000831778088000AD0A782E2D0824078400E8
:100D30008313251883178001A12E83120230831696
:100D4000A8002808F800831208002630F300720873
:100D5000F5007108F4000D308316B2000730B300BF
:100D60008312D422740884008313751883177308C0
:100D700080000C308316A0007508A2007408A10042
:100D80000130A3007508A5007408A400A7017B30FA
:100D9000A6008312A7257808F600F608031DD42EB6
:100DA0007B08103C0319D62E0230F6007608F800B6
:100DB000F808031DDF2E0130F800E12EE12E00308F
:100DC000F80008007208F5007108F400FC010D300D
:100DD0008316B200B3018312D422740884008313F3
:100DE00075188317933080000130740784008313D3
:100DF000751883172030800008308316AE00AF00CE
:100E0000831298230C308316A0007508A200740882
:100E1000A1000230A3007508A5007408A400A70172
:100E20007D30A6008312A7257808F600F608031D7A
:100E3000342FFB017B08033C031C282F7B0874071D
:100E400084008313751883170008FC06FB0A1A2F09
:100E500004307407840083137518831700087C021C
:100E60000319342F0230F6007608F8007808F300F2
:100E70000530710784008313721883178001F3080B
:100E8000031D462F0130F800482F482F0030F8008E
:100E900008005030F200F301FC017230FB00023018
:100EA000F600FE017430FD0005308316AE000430FC
:100EB000AF00831298230A308316AE008030AF0053
:100EC0008312AC238316A0017608200203187D2F1D
:100ED0007C08FA007B08FB0A0319FC0A84008313D0
:100EE0007A1883170008A2000930B2002208B30064
:100EF0008312D4228316A00A642F0130B20003307B
:100F0000B3008312D422FF308316A0000530B10055
:100F10008312352378088316A100A003A0080319C3
:100F2000932F211D862F7D08F8007E08FA007D088A
:100F3000A2007E08A3002230B1008312352383165D
:100F40002208840083132318831778088000013057
:100F50007D07F8007E08FA000318FA0A7808A20054
:100F60007A08A3002130B1008312352383162208AA
:100F70008400831323188317780880000830AE009C
:100F80008030AF00831298230C308316A000A2019A
:100F90007230A1000430A300A5017230A400A701A3
:100FA0007130A6008312A72508308316AE00AF006B
:100FB0008312982308006F08F8016E020318E32FCC
:100FC0006E08F700EF2FF7010830F000EE0DF70D77
:100FD0006F0877020318F700F80DF00BE62F0800F2
:080FE0000C30EE007322080042
:10100000C701F2017030F1008A11A5268A15F8088F
:1010100003195128F2016830F1008A11E2268A157D
:10102000F80803194E28143003178D0083168C130B
:101030000C1483120C080313C800EE016E08043C64
:10104000031C4E28C7016E0EF700F030F705770835
:10105000243EF100F200F4014130F3008A116B24C8
:101060008A15EF016F08043C031C472868306F079E
:10107000840083130008F10041306F07840083135C
:1010800000087102031D4528C70AEF0A32284708E5
:10109000053C031D4C284E28EE0A1E288A114927BC
:1010A0008A15080083168510831285108316051093
:1010B000831205140130EF00F0008A1150228A15C6
:1010C000063003178D0001308F008A110313862428
:1010D0008A150130EF000230F0008A1150228A1583
:1010E0000F3003178D0001308F008A1103138624FF
:1010F0008A15831605118312051183168511831233
:1011000085150630E900FA30EA008A1173258A1540
:10111000E90B8328831605118312051183168511A7
:10112000831285110E30E900FA30EA008A11732526
:101130008A15E90B94288A1187258A15831685114B
:101140008312851183160511831205150630E900F7
:10115000FA30EA008A1173258A15E90BA82883164C
:10116000051183120511831685118312851108005C
:101170004708EE000530EF008A11DB278A15F708D3
:10118000031DCA284708043C0318CA285220C70177
:101190000730C60008008A11F0278A150130EF00D9
:1011A000F0008A1150228A15413003178D0001305A
:1011B0008F008A11031386248A158A11DC248A156C
:1011C000F808031981290130EF000230F0008A117C
:1011D00050228A154A3003178D0001308F008A1182
:1011E000031386248A150C30E700FA30EA008A11CE
:1011F00073258A15E70BF5280130EF000230F00067
:101200008A1150228A15533003178D0001308F0048
:101210008A11031386248A150C30E700FA30EA009D
:101220008A1173258A15E70B0E290130EF00023071
:10123000F0008A1150228A155C3003178D000130AE
:101240008F008A11031386248A150C30E700FA30C8
:10125000EA008A1173258A15E70B27290130EF0070
:101260000230F0008A1150228A15653003178D0074
:1012700001308F008A11031386248A150C30E70091
:10128000FA30EA008A1173258A15E70B40290130EC
:10129000EF000230F0008A1150228A156E300317D9
:1012A0008D0001308F008A11031386248A150C30BB
:1012B000E700FA30EA008A1173258A15E70B5929ED
:1012C0000130EF000230F0008A1150228A15773089
:1012D00003178D0001308F008A11031386248A15AD
:1012E0000C30E700FA30EA008A1173258A15E70B03
:1012F00072290130EF000230F0008A1150228A1565
:10130000DD288A110A1652290C30EE008A11732248
:101310008A150130EF00F0008A1150228A1518302A
:1013200003178D0001308F008A11031386248A155C
:101330000230E800FA30EA008A1173258A15E80BBA
:101340009A290630EF000230F0008A1150228A15E7
:10135000E701C6016708043C031C232A0020B820CB
:101360004608073C0319232A8A11DC248A157808C9
:10137000B600B6080319222A01303602203E840046
:1013800083130008B5003508233C031DCA29083023
:10139000C600232A35082A3C031DE8290630EF0041
:1013A0000230F0008A1150228A15203003178D0078
:1013B00001308F008A11031386248A150630EF004E
:1013C0000230F0008A1150228A15E701C601AA29CD
:1013D0003508EE008A1173228A1506306707E80087
:1013E000EF000230F0008A1150228A150230E80026
:1013F0009630EA008A1173258A15E80BF8292A30FD
:10140000EE008A1173228A15373067078400831330
:101410003508800037306707840083130008E80030
:101420003C30670784008313000868020319C60A6A
:10143000E70A0230E8009630EA008A1173258A151F
:10144000E80B1B2AAA2908004608053C031D2D2A83
:10145000C60152200130B4008F2A4608073C031D04
:10146000362AC601C7010130B4008F2A4608083C5D
:10147000031D412AC601C7010130B400B601B50100
:101480008F2AC6018A1187258A150130EF000230A4
:10149000F0008A1150228A15263003178D00013082
:1014A0008F008A11031386248A150430E900FA306C
:1014B000EA008A1173258A15E90B572A0130EF00DB
:1014C0000230F0008A1150228A152F3003178D0048
:1014D00001308F008A11031386248A150430E90035
:1014E000FA30EA008A1173258A15E90B702A013057
:1014F000EF000230F0008A1150228A1538300317AD
:101500008D0001308F008A11031386248A1506305E
:10151000EF000230F0008A1150228A15B4018A11BE
:101520000A166629E91BA62A0F30F700680EF70590
:101530000A30770203189F2A3030F707A12A69087A
:10154000F7077708EE008A1173228A150F30E80535
:101550000A3068020318AE2A3030B02AE91369084D
:10156000E8076808EE008A1173228A150800EB016B
:101570006B08043C031CE82A6B086807EC006B0846
:101580006907F8006A08FA000318FA0A7808840064
:1015900083137A1883170008ED000B08F7008B13EC
:1015A0006C0803178D0003136D0803178C00831656
:1015B0008C130C1555308D00AA308D008C148C18AE
:1015C000DF2A0C117708831203138B04EB0AB82A65
:1015D00008000B08E9008B13831603178C170C14F3
:1015E0000000000083120313E91B8B170318222B42
:1015F00003170C087F390313E90003170D080313C1
:10160000EA0003170F080313EB006908EE008A11C4
:1016100073228A156A0803178D0003136B080317DA
:101620008F0003130B08EC008B13831603178C1722
:101630000C140000000083120313EC1B8B17E80B43
:10164000222B432B03170C0D0E0D7F390313E900DA
:1016500003170D080313EA0003170F080313EB0029
:101660006908EE008A1173228A156A0803178D0033
:1016700003136B0803178F008D0A03198F0A0310D9
:101680000313E80BE92A08002030691E3030EA0015
:101690006808F700E81F542BF709F70A7708E800F5
:1016A0002D30EA00E91769146808EE006430EF0095
:1016B0008A11DB278A157708E80030307807EB00BD
:1016C0006808EE000A30EF008A11DB278A153030F7
:1016D0007707ED0030307807EC006A08F70030300B
:1016E0006B020319772BE914E91B69158B2B6A0828
:1016F000EB002030EA0030306C020319832B6914B0
:10170000E91BE9148B2B031D6914031D8B2B6B083C
:10171000EC002030EB006919922BE918972B69181F
:101720009C2BA12B6A08EE008A1173228A156B0884
:10173000EE008A1173228A156C08EE008A1173225A
:101740008A156D08EE008A1173228A158A110A160D
:02175000222D48
:1020000003081F398300FF30B000C601C701CA01B1
:10201000C901831603170908C039890003131F1269
:102020009F120030031788008312870188018901FD
:10203000831344300313A0004330A1004230A200B8
:102040004130A3002330A4003930A5003630A6006B
:102050003330A7003030A8003830A9003530AA004E
:102060003230AB002A30AC003730AD003430AE0037
:102070003130AF000A12972A0A160A12BF2B0A162D
:102080000A125C2C0A16143003178D0083168C1369
:102090000C1483120C080313C800480F65280B08A2
:1020A000F7008B13143003178D008C0183168C13EB
:1020B0000C1555308D00AA308D008C148C185E28BC
:1020C0000C117708831203138B040430F200F4011F
:1020D0003C30F3000A126B240A16CB01CC01CB0171
:1020E0004B08043C031C7D283C304B0784008313C1
:1020F000000F7B28CC0ACB0A70284C08053C031D36
:10210000F2280130EF00F0000A1250220A160C30BB
:1021100003178D0000308F000A12031386240A165D
:102120000630EF000230F0000A1250220A16CD01EC
:102130004D08043C031CED280A12DC240A1678081A
:10214000B600B6080319EC2801303602203E8400A0
:1021500083130008B50035082F3C0318EC28350818
:10216000393C031CEC283508EE000A1273220A16CB
:1021700004304D07E7000B08F7008B1367080317BF
:102180008D000313350803178C0083168C130C1570
:1021900055308D00AA308D008C148C18CD280C1170
:1021A0007708831203138B040230E7009630EA00AD
:1021B0000A1273250A16E70BD62806304D07E700EA
:1021C000EF000230F0000A1250220A162A30EE0008
:1021D0000A1273220A16CD0A98280C30EE000A1251
:1021E00073220A160430F200F4013C30F3000A12A4
:1021F0006B240A160A1287250A160130EF00F00038
:102200000A1250220A16153003178D0000308F0075
:102210000A12031386240A160130EF00F0000A1296
:1022200050220A161C3003178D0000308F000A124E
:10223000031386240A160130EF000230F0000A1260
:1022400050220A16253003178D0000308F000A1225
:10225000031386240A160A128A1500200A168A1108
:102260000A128A15B8200A168A11B601B501C830BB
:10227000EA000A1273250A160A12DC240A167808E4
:10228000B600B6080319F32D01303602203E840053
:1022900083130008B5003508233C031D54290A1296
:1022A0008A15CB280A168A110A1287250A163508BC
:1022B000413C031D6D290A128A1584210A168A11D0
:1022C000E8013430E7000A128A15242A0A168A1116
:1022D000B40803196C296D295B290A1287250A168F
:1022E0003508423C031D592B0130CE00CE0803199E
:1022F000592B0C30EE000A1273220A160130EF003F
:10230000F0000A1250220A162E3003178D000030FA
:102310008F000A12031386240A160230E700FA30EF
:10232000EA000A1273250A16E70B8F290630EF0020
:102330000230F0000A1250220A16CF01C6014F08DF
:10234000043C031C0F2A0A12DC240A167808B60083
:10235000B60803190E2A01303602203E840083138A
:102360000008B5003508233C031DB9290830C60014
:102370000F2A35082A3C031DD7290630EF0002300A
:10238000F0000A1250220A16373003178D00003071
:102390008F000A12031386240A160630EF0002305B
:1023A000F0000A1250220A16CF01C6019F293508F3
:1023B000EE000A1273220A1606304F07E700EF00FC
:1023C0000230F0000A1250220A16C830EA000A123F
:1023D00073250A162A30EE000A1273220A163730C5
:1023E0004F07840083133508800037304F0784007F
:1023F00083130008E7003C304F0784008313000874
:102400006702031D042AC60ACF0A0230E70096308D
:10241000EA000A1273250A16E70B072A9F294608C5
:10242000053C031D052BC6010130B4000C30EE0045
:102430000A1273220A160130EF00F0000A1250222D
:102440000A163D3003178D0000308F000A12031367
:1024500086240A160230E700FA30EA000A127325D1
:102460000A16E70B2C2A0630EF000230F0000A12A1
:1024700050220A16D001C6015008043C031C9A2AB7
:102480000A12DC240A167808B600B6080319992A3D
:1024900001303602203E840083130008B500350861
:1024A0002A3C031D6D2A0630EF000230F0000A12AC
:1024B00050220A16463003178D0000308F000A1292
:1024C000031386240A160630EF000230F0000A12C9
:1024D00050220A16D001C6013C2A3508EE000A1225
:1024E00073220A1606305007E700EF000230F000B2
:1024F0000A1250220A160230E7009630EA000A1249
:1025000073250A16E70B7D2A2A30EE000A12732281
:102510000A163C3050078400831335088000D00A27
:102520000230E7009630EA000A1273250A16E70B1C
:10253000922A3C2A0130EF000230F0000A125022A9
:102540000A164C3003178D0000308F000A12031357
:1025500086240A160430E700FA30EA000A127325CE
:102560000A16E70BAC2AD1015108043C031CDC2AF3
:1025700004305107E7003C30510784008313000802
:10258000E8000B08F7008B13670803178D0003138F
:10259000680803178C0083168C130C1555308D00BA
:1025A000AA308D008C148C18D32A0C117708831252
:1025B00003138B04D10AB42A0430F200F4013C3036
:1025C000F3000A126B240A16CE010130EF00F0006E
:1025D0000A1250220A16553003178D0000308F0062
:1025E0000A12031386240A160130EF000230F000AD
:1025F0000A1250220A165E3003178D0000308F0039
:102600000A12031386240A16582B4608083C031D99
:102610000D2BB501B601592B582BC6010130EF0027
:102620000230F0000A1250220A16673003178D009C
:1026300000308F000A12031386240A160430E700C4
:10264000FA30EA000A1273250A16E70B202B013034
:10265000EF000230F0000A1250220A167030031701
:102660008D0000308F000A12031386240A160430EE
:10267000E700FA30EA000A1273250A16E70B392B35
:102680000130EF000230F0000A1250220A167930B1
:1026900003178D0000308F000A12031386240A16D8
:1026A0000630EF000230F0000A1250220A16B40180
:1026B00076290A1287250A163508433C031DA72CE4
:1026C000C6014608083C0319702B0A128A1584219A
:1026D0000A168A114608053C031D6F2B702B612BCF
:1026E0000130D200D2080319882C0A12DC240A1601
:1026F0007808B600B60803198B2B01303602203E4D
:10270000840083130008B5003508233C031D8B2B80
:10271000B601B501882C6330EE000A1273220A1646
:102720000130EF00F0000A1250220A16823003171F
:102730008D0000308F000A12031386240A16013020
:10274000EF000230F0000A1250220A168B300317F5
:102750008D0000308F000A12031386240A16F2013E
:102760003330F1000A12A5260A16F8080319872C3F
:10277000F2015330F1000A12E2260A16F808031992
:10278000842C0130EF000230F0000A1250220A16A9
:10279000943003178D0000308F000A120313862433
:1027A0000A16D9015908043C031CE62B533059077B
:1027B000840083130008E700E8005730E9000A129C
:1027C0008A1592220A168A11D90AD22B0430E70000
:1027D000FA30EA000A1273250A16E70BE82BD20139
:1027E0000C30EE000A1273220A160130EF00F000DE
:1027F0000A1250220A16973003178D0000308F00FE
:102800000A12031386240A160130EF000230F0008A
:102810000A1250220A16A03003178D0000308F00D4
:102820000A12031386240A160A12DC240A167808F0
:10283000B600B60803192F2C01303602203E840062
:1028400083130008B5003508303C03182F2C3508D9
:10285000353C031C2F2C30303502C800302C142C92
:102860000A12F0270A160130EF00F0000A12502277
:102870000A16A93003178D0000308F000A120313C7
:1028800086240A160130EF000230F0000A125022AE
:102890000A16B23003178D0000308F000A1203139E
:1028A00086240A160430E700FA30EA000A1273257B
:1028B0000A16E70B542C480EF700F030F70577089E
:1028C000243EE700E800EA015330E9000A128A15C5
:1028D000B7220A168A110B08F7008B13143003175E
:1028E0008D000313480803178C0083168C130C15F6
:1028F00055308D00AA308D008C148C187D2C0C1155
:102900007708831203138B040A1249270A16722BC5
:102910000130EF00F0000A1250220A16BB300317F4
:102920008D0000308F000A12031386240A1601302E
:10293000EF000230F0000A1250220A16C4300317CA
:102940008D0000308F000A12031386240A160A1223
:1029500087250A163508443C031DF02DC60146089C
:10296000083C0319BE2C0A128A1584210A168A1102
:102970004608053C031DBD2CBE2CAF2C0130DA00EF
:10298000DA080319F02D0A12F0270A16B6010130F1
:10299000EF00F0000A1250220A16CD3003178D0006
:1029A00000308F000A12031386240A160130EF004C
:1029B0000230F0000A1250220A16D63003178D009A
:1029C00000308F000A12031386240A160230E70033
:1029D000FA30EA000A1273250A16E70BE82CB60152
:1029E000B501DA080319D52DDB01B6080319712DDD
:1029F00001303602203E840083130008B5000C30FD
:102A0000EE000A1273220A160130EF00F0000A12DB
:102A100050220A1630303502E700DF3003178D00F0
:102A200000308F0003100A300313E8000A128A15E1
:102A3000E9220A168A116708E8001830E9000A122C
:102A40008A15442B0A168A11E53003178D000030D1
:102A50008F00031005300313E8000A128A15E922DB
:102A60000A168A110130EF000230F0000A125022DB
:102A70000A16E83003178D0000308F000A12031386
:102A800086240A1630303502F700F70EF030F705CD
:102A90007708243EE700F200F4015C30F3000A12EC
:102AA0006B240A160630EF000230F0000A125022A2
:102AB0000A16E1016108043C031C6E2D5C306107BD
:102AC000840083130008E700E8005730E9000A1289
:102AD0008A1592220A168A11E10A5A2D30303502DF
:102AE000DB000A12DC240A167808B600C830EA00B7
:102AF0000A1273250A16B6080319D32D01303602BF
:102B0000203E840083130008B5003508233C031DD4
:102B10008B2DDA01D42D35082A3C031DC72DDB0887
:102B20000319C72DFF30E200E300E400E500E600F2
:102B30005B0EF700F030F7057708243EE700E80069
:102B4000EA016230E9000A128A15B7220A168A11D0
:102B500030305B07B5000130EF000230F0000A12A0
:102B600050220A16EB3003178D0000308F000A1236
:102B7000031386240A160430E700FA30EA000A122A
:102B800073250A16E70BBD2DB601DA01D42D3508E1
:102B9000303C0318D32D3508353C031CD32D303081
:102BA0003502DB00D42D712DF12CC830EA000A1259
:102BB00073250A160A12DC240A167808B600B6082D
:102BC0000319EF2D01303602203E840083130008E4
:102BD000B5003508233C031DEF2DB501F02DC02CA9
:0E2BE0000A1287250A16B501B6012B296300DB
:04400E00E22CFF3F62
:00000001FF
;PIC16F887
;CRC=AA22  CREATED="14-Mar-21 13:06"
